:020000040800F2
:10000000C80800209D010008A31800089F130008DD
:10001000A1180008A9020008F12000080000000053
:10002000000000000000000000000000B1190008FE
:10003000D502000800000000A5180008E51C000813
:10004000B7010008B7010008B7010008B7010008B0
:10005000B7010008B7010008B7010008B7010008A0
:10006000B7010008B7010008B7010008B701000890
:10007000B7010008B7010008B7010008B701000880
:10008000B7010008B7010008B7010008B701000870
:10009000B7010008B7010008B7010008B701000860
:1000A000B7010008B7010008B7010008B701000850
:1000B000B7010008B7010008B7010008B701000840
:1000C000B7010008B7010008B7010008B701000830
:1000D000B7010008B7010008B7010008B701000820
:1000E000B7010008B7010008B7010008B701000810
:1000F000B7010008B7010008B7010008B701000800
:10010000B7010008B7010008B7010008B7010008EF
:10011000B7010008B7010008B7010008B7010008DF
:10012000B7010008B7010008B7010008B7010008CF
:10013000B7010008B7010008B7010008B7010008BF
:10014000B7010008B7010008B7010008B7010008AF
:10015000B7010008B7010008B7010008B70100089F
:10016000B7010008B7010008B7010008B70100088F
:10017000B7010008B7010008B7010008000000003F
:10018000B7010008B7010008DFF80CD000F07AF8DA
:100190000048004795250008C80800200648804709
:1001A00006480047FEE7FEE7FEE7FEE7FEE7FEE75C
:1001B000FEE7FEE7FEE7FEE76D1D00088901000887
:1001C0002DE9F05F0546002092469B46884606468C
:1001D000814640241BE0284641464746224600F01F
:1001E00041F853465A46C01A914110D31146184659
:1001F000224600F028F82D1A67EB01084F462246E8
:100200000120002100F01FF817EB00094E41201ECD
:10021000A4F10104DFDC484631462A464346BDE8E6
:10022000F09FD2B201E000F8012B491EFBD27047CB
:100230000022F6E710B513460A4604461946FFF7B2
:10024000F0FF204610BD202A04DB203A00FA02F11C
:10025000002070479140C2F1200320FA03F31943B4
:1002600090407047202A04DB203A21FA02F0002156
:10027000704721FA02F3D040C2F1200291400843B6
:1002800019467047064C074D06E0E06840F0010350
:1002900094E8070098471034AC42F6D3FFF778FF94
:1002A0002428000844280008FEE7000030B5044672
:1002B0000020651804E000BF14F8011B01F008FFDE
:1002C000AC42F9D3002101F003FFBDE8304000212A
:1002D00001F0FEBE70470000002229B101291AD0AA
:1002E00002291BD04FF440720E490B6823F440736F
:1002F0000B600B6813430B600A6822F0F8020A6077
:100300000A68022303EBC00002430A60086840F455
:100310008030086070474FF48072E5E74FF4007258
:10032000E2E70000103C02401348016889050FD540
:10033000016821F400710160016841F4006101600D
:10034000016821F400610160016841F400710160FD
:10035000016849050FD5016821F4806101600168D9
:1003600041F480510160016821F48051016001680D
:1003700041F4806101607047003C024000B587B0E5
:1003800000F02AF8094800F02BF9029004200390AD
:10039000002102200091049005A9684600F090F920
:1003A000002800D0012007B000BD000000000108B7
:1003B00010B588B040F6FF7400F0BCFA684600F053
:1003C000CBF900F04FFA0298844302D0022008B023
:1003D00010BD0020FBE7000010B500F0ABFA0249A9
:1003E000F320086010BD00000C3C02402DE9F041F4
:1003F00016468846054600240D4F13E058F8242081
:1004000000232946022000F057FA10B10320BDE86E
:10041000F08158F824002968814201D00220F6E7D3
:10042000641C2D1DB44201D2BD42E7D90020EEE785
:10043000FBFF070830B58FB0044640F6FF7507A8EC
:1004400000F08AF90120CDE90004AA200490099C5B
:100450009DF834008DF818002C4300F06BFA00F082
:1004600017FA6846029400F097F90FB030BD00000B
:1004700008490A6822F440720A600A6842F00402DD
:100480000A600A684FF4803343EA002002430A609E
:1004900070470000103C0240064A136823F4407382
:1004A000136013681360136843F001031360017055
:1004B00070470000103C0240084910B50C6824F455
:1004C00040740C600C6844F440740C600C6844F098
:1004D00001040C600260436010BD0000103C02404B
:1004E000074A136823F440731360136843F480735E
:1004F0001360136843F0010313600180704700002C
:10050000103C0240074A136823F4407313601368D9
:1005100043F400731360136843F001031360016038
:1005200070470000103C024017490868C20617488F
:1005300005D5C26942F01002C26110220A600A6841
:10054000920605D5C26942F00802C26120220A6003
:100550000A68520605D5C26942F00402C26140220F
:100560000A600A68120605D5C26942F00202C26139
:1005700080220A600A68920705D5C26942F020020B
:10058000C2610220086070470C3C0240A8040020B1
:1005900070B5114904460020C86100F0C3FA064650
:1005A0000E4D09E0601C07D024B100F0BBFA801B9F
:1005B000A04201D9032070BD2868C003F2D4286886
:1005C000C00701D001202860286810F0F200F2D0A6
:1005D000FFF7AAFF012070BDA80400200C3C0240D8
:1005E0000021A0F100634FF4804293423FD32149A0
:1005F0000144914201D2012139E01F490144914255
:1006000001D2022133E01D490144914201D203216C
:100610002DE01B490144B1F5803F01D2042126E0C1
:10062000184942184FF400318A4201D205211EE0D8
:10063000154A02448A4201D2062118E0134A0244B4
:100640008A4201D2072112E0114A02448A4201D2B1
:1006500008210CE00F4A02448A4201D2092106E037
:100660000D4A1044884201D20A2100E00B210846BD
:100670007047000000C0FFF70080FFF70040FFF761
:100680000000FFF70000FEF70000FCF70000FAF79B
:100690000000F8F70000F6F70000F4F770B5044624
:1006A00000F040FA0546601C02D00448007804447B
:1006B00000F038FA401BA042FAD370BD10000020B1
:1006C0002DE9F047044622480F46017E01290AD051
:1006D0000121804601764CF250394846FFF758FF19
:1006E000020003D02FE00220BDE8F0874FF0FF307A
:1006F00038602068174D012801D0A6681CE0207CD6
:100700006168FFF7B5FE4846FFF742FF02462868DA
:1007100020F00400286014E0217C3046FFF7DCFD67
:100720004846FFF735FF0200286820F0FA002860ED
:1007300001D03E6005E0761CD4E902100844B042C6
:10074000EAD8FFF7F1FD002188F818101046CBE732
:10075000A8040020103C02400F2101600D490988C7
:1007600081600C4AAA21521E1378CC2B0FD012782C
:10077000AA2A00D0552101610649891E0A6802F0A3
:10078000E0020276097801F00C0141617047CC214A
:10079000F1E70000163C02402DE9F0472E490446DF
:1007A00001200A7E012A11D0012288460A7621788A
:1007B0004CF2503AC90715D06068284D0128A66848
:1007C000504606D0FFF7E4FE48B10BE00220BDE83A
:1007D000F087FFF7DDFE28B92988B14301E02988B9
:1007E000314329802178890707D5257C5046FFF7BA
:1007F000CFFE10B91949491E0D702178DFF86090BD
:10080000490713D5207E00F0200700F0400500F0D6
:1008100080065046FFF7BCFE40B999F8002002F070
:100820001F02154335433D4389F8005021784FF0AE
:10083000000209070CD5207D99F8003023F00C0345
:1008400089F8003099F80030034389F800301046E9
:1008500088F81820BBE70000A8040020163C0240DE
:10086000143C02400348016841F00041016000204F
:1008700070470000103C02400448017841F002013A
:1008800001704CF25030FFF783BE0000143C024070
:1008900006480068C00707D0044805490C380160C5
:1008A000044901600020704701207047143C024059
:1008B0003B2A19087F6E5D4C2DE9F0471B4E05461B
:1008C0001446307E1F468946012808D00120307624
:1008D0004CF250384046FFF75BFE18B114E002209E
:1008E000BDE8F0879DB1012D16D0022D19D022460A
:1008F0003B464846FFF7E0FD4046FFF749FE0C49FE
:100900000A6822F001020A6000213176E8E7E1B2CC
:100910004846FFF7C1FDEFE7A1B24846FFF7E0FD0B
:10092000EAE721464846FFF7EDFDE5E7A804002089
:10093000103C0240074900200A68002A09DA054AEB
:10094000054B0C3A1360054B13600968002900DA67
:1009500001207047103C024023016745AB89EFCD71
:100960002DE9F84FDFF87CB100224FF001084FF07D
:10097000030A4FF00F090BF1040E00BF0B6808FAD1
:1009800002F42340A3426ED14D68022D01D0122DF6
:100990000ED1D50800EB850CDCF820505607F70E79
:1009A00009FA07F6B5430E69BE402E43CCF8206025
:1009B000066855000F790AFA05FC07F0030726EAD6
:1009C0000C06AF40374307604E68012E05D0022E5B
:1009D00003D0112E01D0122E0ED18668CF6826EAE0
:1009E0000C06AF40374387604668A6430C79C4F3D2
:1009F0000014944034434460C6688C6826EA0C06B0
:100A0000AC403443C4604C68E40065D5364C25687E
:100A100045F480452560246822F0030504F48044F1
:100A20000094324C2E19D6F8084895072F0F09FA72
:100A300007F5AC432E4DA84201D1002524E02D4DF1
:100A4000A84201D101251FE02B4DA84201D102256A
:100A50001AE02A4DA84201D1032515E0284DA842ED
:100A600002D1042510E037E0264DA84201D105252A
:100A70000AE0254DA84201D1062505E0234DA842F4
:100A800001D1072500E00825BD402543C6F80858D8
:100A9000DBF800405D464E689C43F60300D51C43DE
:100AA0002C60DEF8004075464E689C43B60300D5C6
:100AB0001C432C600B4D08352C684E689C43F60295
:100AC00000D51C432C60074D0C352C684E689C43A8
:100AD000B60200D51C432C60521C102AFFF44EAF06
:100AE000BDE8F88F003C014044380240003001402E
:100AF000000002400004024000080240000C0240D6
:100B0000001002400014024000180240001C024085
:100B10000069084000D0012070470AB18161704728
:100B20000904FBE7014880687047000010000020BE
:100B300002488168027811448160704710000020EB
:100B40000B4810B5016841F400710160016841F47F
:100B500080610160016841F480710160032000F050
:100B600061F8002000F006F800F024F8002010BD25
:100B7000003C024070B50D4D04464FF47A71287860
:100B8000B1FBF0F00A490968B1FBF0F000F0D2FACD
:100B900048B9102C07D200222146501E00F022F83E
:100BA00000206C6070BD012070BD000010000020AE
:100BB0001C0000200A4808B5016841F4804101602A
:100BC000006800F4804000900548001F016841F073
:100BD00080510160006800F08050009008BD000066
:100BE00044380240F0B40E4B1B680C46C3F302239A
:100BF000C3F10705042D00D90425191D072901D2C9
:100C0000002300E0DB1E012606FA05F1491E214003
:100C100099409E40761E16403143F0BC01F09ABCCC
:100C20000CED00E0064900F0070208684FF6FF03EC
:100C3000184040EA0220034A104308607047000051
:100C40000CED00E00000FA052DE9F0470E46050026
:100C500065D0DFF81481D8F80000F7B200F00F007B
:100C6000B04207D288F80070D8F8000000F00F00FA
:100C7000B04254D128683D4C810712D5400703D5B6
:100C8000206840F4E05020602878000703D52068F1
:100C900040F4604020602068A96820F0F00008431C
:100CA00020602878C0072DD03049686808390128AD
:100CB00012D0022813D0032811D00968890700290F
:100CC0002DDA216821F0030101432160FFF72AFF9B
:100CD000814641F2883A0EE009688903EFE7096826
:100CE0008901ECE7FFF71EFFA0EB0901514502D98E
:100CF0000320BDE8F0872068696800F00C00B0EBC5
:100D0000810FEFD1D8F80010404601F00F01B14239
:100D100007D90770006800F00F00B04201D0012031
:100D2000E7E72878400705D52068E96820F4E05017
:100D3000084320602878000706D52068296920F438
:100D4000604040EAC100206000F036F82168084A9F
:100D5000C1F30311515CC840064908600020FFF749
:100D600009FF0020C5E70000003C024008380240AF
:100D70003C2600081C00002004480549006809685A
:100D8000044AC1F38221515CC84070471C00002016
:100D9000083802404C2600080448054900680968E4
:100DA000044AC1F34231515CC84070471C00002026
:100DB000083802404C260008154810B5006810F0AD
:100DC0000C02144813D04110042A0FD0082A0ED167
:100DD0000F4C241F2268236802F03F025B0207D5F4
:100DE0002068C0F38810A0FB010106E0084610BD92
:100DF0002168C1F38811A1FB00010023FFF7E0F98E
:100E00002168C1F30141491C4900B0FBF1F010BD5C
:100E1000083802400024F4002DE9F84F050076D090
:100E20002878DFF8F8B2BE4CC00749D0DBF80010D4
:100E30005846C1F38101012908D00068C0F3810040
:100E400002280AD1201D0068400206D520688003D0
:100E500036D568680028E2D032E06868B0F5803F97
:100E600010D0B0F5A02F206810D020F48030206082
:100E7000206820F4802020606868A0B1FFF752FE4F
:100E800006460CE0206840F48030F4E740F480200F
:100E90002060F7E7FFF746FE801B642873D82068C0
:100EA0008003F7D50CE0FFF73DFE064605E000BFE6
:100EB000FFF738FE801B6428F0D820688003F7D441
:100EC0002878DFF8608280074FF000093ED5DBF814
:100ED0000010584611F00C0F09D00068C0F38100D3
:100EE00002280BD18D48001F0068400206D42068FC
:100EF000800715D5E868012809D111E0E868B8B184
:100F00000120C8F80000FFF70DFE064605E002E1EB
:100F1000FFF708FE801B0228C0D820688007F7D59D
:100F20002068296920F0F80040EAC10020600DE047
:100F3000C8F80090FFF7F6FD064604E0FFF7F2FD63
:100F4000801B02281FD820688007F7D42878000764
:100F500022D5724E744869696C3671B10121016005
:100F6000FFF7E0FD074604E0FFF7DCFDC01B0228A9
:100F700009D830688007F7D50EE0C0F80090FFF779
:100F8000D1FD074605E083E0FFF7CCFDC01B02283A
:100F90007ED830688007F7D42878400768D5DFF816
:100FA0007CA100270AF1380ADAF80000C0000BD44F
:100FB000DAF8001041F08051CAF80010DAF80000A9
:100FC000012700F080500090584E3068C00510D4C2
:100FD000306840F480703060FFF7A4FD009005E0B9
:100FE000FFF7A0FD0099401A022851D83068C005CB
:100FF000F6D54A4EA868683601280FD00528306813
:1010000010D020F001003060306820F00400306023
:10101000A868B8B1FFF786FD00900FE0306840F097
:101020000100F4E740F004003060F7E7FFF77AFDD5
:101030000099411A41F28830814264D830688007B3
:10104000F4D50EE0FFF76EFD009007E0FFF76AFDB4
:101050000099411A41F28830814254D830688007A3
:10106000F4D42FB1DAF8001021F08051CAF8001042
:10107000A869C0B3DBF80010C1F3810102294AD08E
:101080000228484607D0C8F86000FFF74BFD00E093
:1010900039E005463AE04746C8F86000FFF742FDF0
:1010A000064604E0FFF73EFD801B02282BD820688F
:1010B0008001F7D4D5E907010843A96A1C4A490809
:1010C00002EB01416A6A41EA8211084395F82C104B
:1010D00040EA01611148001F016001203866FFF7F6
:1010E00021FD054605E014E0FFF71CFD401B02282A
:1010F00009D820688001F7D50BE000BFFFF712FD8B
:10110000401B022802D90320BDE8F88F2068800127
:10111000F4D40020F8E70120F6E700000838024088
:101120000038024000004742800E474200700040F5
:101130000000FFFF10B5401EB0F1807F01D30120F9
:1011400010BD4FF0E02460610F21601701F002FA3A
:101150000020A06107202061002010BD70B50400B0
:1011600004D094F83900002510B106E0012070BDCC
:1011700084F83850204600F023F8242084F8390001
:101180002068C16821F40051C160204600F018FEBB
:101190002068016921F4904101612068416921F0D2
:1011A0002A0141612068C16841F40051C160E563D2
:1011B000202084F8390084F83A00002070BD000037
:1011C00010B586B0044614216846FFF731F814497B
:1011D0002068884221D11348016841F01001016064
:1011E000006800F0100005900E481438016841F0C6
:1011F000010101600068694600F0010005904FF4AC
:10120000C060009002200190012002900320039012
:10121000072004900448FFF7A3FB06B010BD0000B0
:101220000010014044380240000002402DE9F8431C
:10123000044690F83A00994616460D4620284FD1AC
:1012400095B18EB194F83800012849D0012084F876
:1012500038000027E763222084F83A00FFF762FC99
:10126000A6858046E68531E00120BDE8F883E08D63
:10127000401EE085A0684346B0F5805F4FF0000255
:101280004FF020012046CDF8009004D000F0EEFE93
:1012900098B10320E9E700F0E9FE0028F9D12069C0
:1012A00000282068406803D0C1B225F8011B0DE07A
:1012B000C0F3080125F8021B08E020690028206817
:1012C000406801D000F07F0005F8010BE08D002898
:1012D000CDD1202084F83A0084F838700020C4E78B
:1012E0000220C2E72DE9F843044690F839001F4672
:1012F00016460D46202850D1A5B19EB194F838006D
:1013000001284AD0012084F838004FF00008C4F8C2
:101310003C80212084F83900FFF704FCA684814634
:10132000E68426E00120BDE8F883E08C401EE084DE
:10133000A0684B46B0F5805F4FF000024FF080018F
:101340002046009703D000F091FEE8B90DE000F0D0
:101350008DFEC8B928882168C0F30800486020695C
:1013600008B16D1C05E0AD1C03E0216815F8010B08
:101370004860E08C0028D8D14B460022402120460E
:10138000009700F073FE08B10320CCE7202084F81A
:10139000390084F838800020C5E70220C3E7FEE763
:1013A000F0B500220D4B154614460A27B1FBF3F6A3
:1013B00030368654B1FBF3F603FB1611B3FBF7F39B
:1013C000521C861816F8016C302E00D125B16D1C08
:1013D000641C0A2CEAD3F0BD0022F9E700CA9A3B4C
:1013E000F0B587B014216846FEF722FF2548002497
:1013F000016841F004010160016801F004010591F8
:10140000016841F080010160016801F080010591EF
:10141000016841F001010160016801F001010591DD
:10142000016841F0020101600068174E00F00200FF
:101430004FF400550590002229463046FFF76DFB1A
:10144000124F002240213846FFF767FB0095012527
:10145000CDE90154694630460394FFF781FA4020F4
:101460000090CDE90154694638460394FFF778FAB5
:101470008020CDE90004694638460294FFF770FAEF
:1014800007B0F0BD303802400008024000040240BE
:1014900008B500208DF800003F4800F0B9FB3F4838
:1014A00000F0B6FB3E4800F0B3FB3E4800F0B0FB56
:1014B0003B4800F0ADFB3C4800F0AAFB364800F08A
:1014C000A7FB3AA000F0A4FB3A4D4FF0FF363A4C90
:1014D000FEF76EFF206039A000F09AFB47A000F0F5
:1014E00097FB56A000F094FB64A000F091FB2068ED
:1014F00008B172A000E081A000F08AFB8FA000F08C
:1015000087FB286840683346012269462948FFF76F
:101510008DFE9DF80000312807D0322808D03328EE
:1015200009D0342813D095A018E000F043FACFE793
:1015300000F0F6FACCE7A1A000F06AFBA8494868E1
:10154000A0606060096881F308888047C0E7206870
:1015500090B10020FEF76EFF18B1A2A000F058FB7A
:10156000B6E7ACA000F054FBB2A000F051FBFFF7CF
:1015700083F9FFF7DFF9ABE70120FEF75BFF08B166
:10158000B4A0EBE7BEA000F043FBAAA000F040FB34
:10159000FFF772F99CE70000D827000840270008F1
:1015A000A82600088C270008F42600080D0A0D0A5A
:1015B0000000000068040020000000200D0A3D3DEE
:1015C0003D3D3D3D3D3D3D3D3D3D3D3D3D3D3D3D4B
:1015D0003D204D61696E204D656E75203D3D3D3D60
:1015E0003D3D3D3D3D3D3D3D3D3D3D3D3D3D3D3D2B
:1015F0003D3D3D3D3D3D3D3D0D0A0A002020446FEF
:10160000776E6C6F616420696D61676520746F200F
:1016100074686520696E7465726E616C20466C61D9
:101620007368202D2D2D2D2D2D2D2D2D2D2D2D2D76
:101630002D2D2D2D20310D0A0A000000202055707F
:101640006C6F616420696D6167652066726F6D20E3
:1016500074686520696E7465726E616C20466C6199
:101660007368202D2D2D2D2D2D2D2D2D2D2D2D2D36
:101670002D2D2D2D20320D0A0A0000002020457846
:10168000656375746520746865206C6F616465645A
:10169000206170706C69636174696F6E202D2D2DEF
:1016A0002D2D2D2D2D2D2D2D2D2D2D2D2D2D2D2D6A
:1016B0002D2D2D2D20330D0A0A0000002020446915
:1016C0007361626C65207468652077726974652047
:1016D00070726F74656374696F6E202D2D2D2D2DC2
:1016E0002D2D2D2D2D2D2D2D2D2D2D2D2D2D2D2D2A
:1016F0002D2D2D2D20340D0A0A0000002020456ECE
:1017000061626C6520746865207772697465207009
:10171000726F74656374696F6E202D2D2D2D2D2DC4
:101720002D2D2D2D2D2D2D2D2D2D2D2D2D2D2D2DE9
:101730002D2D2D2D20340D0A0A0000003D3D3D3D8C
:101740003D3D3D3D3D3D3D3D3D3D3D3D3D3D3D3DC9
:101750003D3D3D3D3D3D3D3D3D3D3D3D3D3D3D3DB9
:101760003D3D3D3D3D3D3D3D3D3D3D3D3D3D3D3DA9
:101770003D3D3D3D3D3D0D0A0A000000496E76614C
:101780006C6964204E756D6265722021203D3D3E7E
:1017900020546865206E756D6265722073686F7580
:1017A0006C642062652065697468657220312C2044
:1017B000322C2033206F7220340D0000537461727C
:1017C000742070726F6772616D20657865637574DF
:1017D000696F6E2E2E2E2E2E2E0D0A0A000000008E
:1017E000000001084572726F723A20466C6173689E
:1017F00020777269746520756E2D70726F746563E1
:1018000074696F6E206661696C65642E2E2E0D0AF8
:101810000000000057726974652050726F74656330
:1018200074696F6E2064697361626C65642E2E2E1C
:101830000D0A000053797374656D2077696C6C2014
:101840006E6F7720726573746172742E2E2E0D0A7E
:10185000000000004572726F723A20466C61736836
:101860002077726974652070726F74656374696F34
:101870006E206661696C65642E2E2E0D0A000000D4
:1018800057726974652050726F74656374696F6E06
:1018900020656E61626C65642E2E2E0D0A000000BC
:1018A000FEE77047704700002DE9F84300240F461B
:1018B0000646904613460C60012269462848FFF709
:1018C000B5FC050020D19DF80000182820D006DCCA
:1018D00001280BD002280BD0042804D104E04128B1
:1018E00027D0612825D0012530700DE0802401E04B
:1018F0004FF480643070221D4346B11C1848FFF736
:1019000095FC050017D0002428463C60BDE8F8830C
:101910004346012269461248FFF788FC18B99DF832
:101920000000182803D001259DF80000DCE7022400
:10193000DAE70225D8E7F178B07881F0FF01884234
:101940000AD130190179407900EB01282146301D78
:10195000FEF7ACFC4045D7D000240125D4E70000B9
:101960006804002010B507A000F052F90E4948683D
:101970000E4A90605060096881F30888BDE8104005
:101980000047000053746172742070726F67726157
:101990006D20657865637574696F6E2E2E2E2E2E00
:1019A0002E0D0A0A000000000000010800000020BF
:1019B000704700001FB50020009001900290039036
:1019C00015A000F025F903A800F094FB38B1052814
:1019D0001AD004281CD002281CD01EA015E02548CF
:1019E00000F016F9244800F013F968460399FFF750
:1019F000D7FC22A000F00CF9684600F009F922A0FB
:101A000000F006F923A000E028A000F001F91FBDB6
:101A100036A0FAE73CA0F8E757616974696E672061
:101A2000666F72207468652066696C6520746F202B
:101A300062652073656E74202E2E2E2028707265CC
:101A400073732027612720746F2061626F7274297D
:101A50000A0D00000A0D4661696C656420746F20F0
:101A600072656365697665207468652066696C6572
:101A7000210A0D0054260008200000200A0D2053E2
:101A8000697A653A200000002042797465730D0A76
:101A9000000000002D2D2D2D2D2D2D2D2D2D2D2D2A
:101AA0002D2D2D2D2D2D2D0A000000000A0A0D547C
:101AB000686520696D6167652073697A652069735F
:101AC00020686967686572207468616E2074686553
:101AD00020616C6C6F776564207370616365206D45
:101AE000656D6F7279210A0D000000000A0A0D561B
:101AF0006572696669636174696F6E206661696C9D
:101B00006564210A0D0000000D0A0A41626F7274BB
:101B1000656420627920757365722E0A0D000000DD
:101B200008B500208DF800000EA000F071F84FF00D
:101B3000FF33012269461248FFF778FB9DF8000049
:101B400043280DD14FF4E0220EA1144800F09EFB73
:101B50008DF8000008B112A000E01CA000F058F8B9
:101B600008BD00000A0A0D53656C65637420526558
:101B700063656976652046696C650A0D00000000A2
:101B80006804002055706C6F61646564466C617315
:101B900068496D6167652E62696E0000000001088A
:101BA0000A0D4572726F72204F63637572726564BD
:101BB000207768696C65205472616E736D69747406
:101BC000696E672046696C650A0D00000A0D46695A
:101BD0006C652075706C6F616465642073756363F8
:101BE00065737366756C6C79200A0D0001B5074842
:101BF00090F83910A02902D1202180F839106423EF
:101C0000012269460148FFF76DFB08BD680400200A
:101C1000002201E0521C92B2815C0029FAD10146F7
:101C200064230148FFF75EBB68040020F0B5054659
:101C300000242A7820462346302A2ED16A78782A32
:101C400001D0582A29D102241CE000BFA2F141068C
:101C5000052E07D9A2F16107052F03D91136092EE8
:101C600004D913E0A2F13007092F01D8303A04E07B
:101C7000052E01D8373A00E0573A641C02EB0313F3
:101C80000B2C04D22A5D002AE0D103E000202A5D5B
:101C9000002A01D101200B60F0BD2A5D62B16B2AE0
:101CA00001D04B2A02D10CB19B0205E06D2A01D074
:101CB0004D2A04D11CB11B0501200B600AE0A2F1E2
:101CC0003006092E0CD803EB83036FF02F0606EBCA
:101CD00043031344641C0B2CDED20128DDD1F0BD7C
:101CE0000020F0BDFEF724BF30B593B03021684628
:101CF000FEF79EFA14210CA8FEF79AFA194800255F
:101D0000016841F080510160006800F0805011903E
:101D10001548016841F4804101600068022400F424
:101D20008040119001200090000401908001CDE9D5
:101D3000064008AA0420A82182E813000B906846F8
:101D4000FFF76AF80CA90F2081E831004FF4A0508A
:101D50000F90E002109005210CA8FEF775FF13B05C
:101D600030BD00004038024000700040104801685B
:101D700041F4700101600F48016841F00101016008
:101D80000C4A00210832116002680B4B1A400260B5
:101D9000031D0A4A1A60026822F480220260054884
:101DA0000C30016002495806803908607047000015
:101DB00088ED00E000380240FFFFF6FE10300024FE
:101DC0002DE9F041044600680169E26821F44051C0
:101DD000114301612169A068E26908436169114307
:101DE00022680843D16849F20C6399430143D160EA
:101DF00020684169A26921F4407111434161E2699F
:101E00006425B2F5004F9748974922684FF0320891
:101E10003FD08A4201D082427CD1FEF7BDFF00EB69
:101E2000C00101EB001061688900B0FBF1F6FEF71C
:101E3000B3FF00EBC00101EB001061688900B0FB4B
:101E4000F1F0B0FBF5F06FF01801484306EB8001AC
:101E500008EB0110B0FBF5F000F0F006FEF79CFF78
:101E600000EBC00101EB001061688900B0FBF1F0EC
:101E7000B0FBF5F006EB0016FEF78EFF00EBC0019D
:101E800001EB001061688900B0FBF1F7FEF784FFF9
:101E9000D2E08A4201D082423DD1FEF77DFF00EBC5
:101EA000C00101EB001061684900B0FBF1F0B0FB2C
:101EB000F5F00601FEF770FF00EBC00101EB00102A
:101EC00061684900B0FBF1F7FEF766FF00EBC00167
:101ED00001EB001061684900B0FBF1F0B0FBF5F0D8
:101EE0006FF01801484307EB800108EBC100B0FB1D
:101EF000F5F000F0F80006EB4006FEF74DFF00EBB2
:101F0000C00101EB001061684900B0FBF1F7FEF77A
:101F100043FF3CE055E0FEF72FFF00EBC00101EB73
:101F2000001061684900B0FBF1F0B0FBF5F006016C
:101F3000FEF722FF00EBC00101EB001061684900D1
:101F4000B0FBF1F7FEF718FF00EBC00101EB00104A
:101F500061684900B0FBF1F0B0FBF5F06FF01801DB
:101F6000484307EB800108EBC100B0FBF5F000F03F
:101F7000F80006EB4006FEF7FFFE00EBC00101EBA8
:101F8000001061684900B0FBF1F7FEF7F5FE00EBC9
:101F9000C00101EB001061684900B0FBF1F0B0FB3B
:101FA000F5F06FF01801484307EB800108EBC10022
:101FB000B0FBF5F000F00700216830448860BDE810
:101FC000F081FEF7D9FE00EBC00101EB0010616863
:101FD0008900B0FBF1F6FEF7CFFE00EBC00101EB8C
:101FE000001061688900B0FBF1F0B0FBF5F06FF014
:101FF0001801484306EB800108EB0110B0FBF5F037
:1020000000F0F006FEF7B8FE00EBC00101EB001097
:1020100061688900B0FBF1F0B0FBF5F006EB00164B
:10202000FEF7AAFE00EBC00101EB00106168890019
:10203000B0FBF1F7FEF7A0FE00EBC00101EB0010D2
:1020400061688900B0FBF1F0B0FBF5F06FF01801AA
:10205000484307EB800108EB0110B0FBF5F000F0FE
:102060000F00A9E700140140001001402DE9F041E4
:10207000984617460E460446069D1DE0681C1BD078
:102080002DB1FEF74FFDA0EB0800A84214D920683F
:10209000C16821F4D071C1602068416921F001015B
:1020A0004161202084F8390084F83A00002084F847
:1020B00038000320BDE8F0812068006836EA00009F
:1020C00004D00020B842D9D00020F3E70120F9E77E
:1020D00041F4807141F2210240004900CB0500D556
:1020E000401CC30300D55040CB03F5D580B27047E8
:1020F000FEE700002DE9F14F0027DFF880A188B04E
:10210000DFF874B13E46B9463C46CAF800B0AAE0D2
:102110004FF000084546A2E041F2883204A9584831
:10212000FFF7C2FB60B102286AD0B9F1000F00D0FE
:10213000761C052E7AD91820FFF758FD18208CE060
:102140000498002660B1022805D04D498B7843459C
:102150000BD0152081E00620FFF748FD02247EE029
:102160000620FFF743FD012579E0B8F1000F14D0F8
:102170008208DAF80000091DFEF738F9F0B31820DC
:10218000FFF734FD1820FFF731FD042408F10100AA
:1021900000F0FF084FF0010961E0087978B30020F2
:1021A000384B091D02E01A54401C491C0A780AB138
:1021B0004028F8D34FF0000C03F800C060466B468F
:1021C00001E01A54401C11F8012F202A01D01028D8
:1021D000F7D303F800C006A91846FFF727FD0898B3
:1021E0006FF4E0210068C84215D918204FF480141C
:1021F0008DF814002346012205A902E01DE016E037
:1022000025E02148FFF76EF82346012205A91E4864
:10221000FFF768F805245846FEF7B0F808980699C5
:1022200001600620FFF7E2FC43200DE014E00620E9
:10223000FFF7DCFC01252F4611E0DAF80010049AC4
:102240001144CAF800100620FFF7D0FC9EE71820C2
:10225000FFF7CCFC18207FE74320FFF7C7FC55EAC7
:1022600004003FF459AF57EA04003FF451AF09B0FE
:102270002046BDE8F08F0000000001080C0000209F
:102280006000002020000020680400202DE9F74FA6
:1022900086B04FF0000A0120AC4E01900122089850
:1022A000727086F802A0FF23D04655465746F37059
:1022B000544604E006EB040C641C8CF804300B5DFF
:1022C0000BB1402CF6D3321900211171014602A83E
:1022D000FFF766F802A8641D02E03155641C7F1CFC
:1022E000C15D0029F9D14FF48019DFF860B202E036
:1022F00000203055641C842CFAD31FE05C464E4607
:102300004B468322611C9248FEF7ECFF8021201D82
:10231000FDF7CCFF0446000AFFF768FCE0B2FFF7C8
:1023200065FC3346012269468948FEF77FFF60B1AC
:102330000AF1010ABAF1050F00D3012558EA050098
:10234000DCD006980290089C7CE09DF800000628EE
:1023500015D01828EED13346012269467C48FEF795
:1023600065FF0028E6D19DF800001828E2D1022080
:10237000FEF794F97648006840680225DAE74FF0E6
:102380000108D7E7DDE90103704AC6B24FF4806760
:102390002046BC4201D3394600E08021884200D368
:1023A0000846B1F5806F07D0012757709670F64345
:1023B000D6700426071D06E00227F6E713F801CBC6
:1023C00002F806C0761CBE42F8D3884207D81A230A
:1023D000001D091D01E01354401C8842FBD34FF03F
:1023E000000A8DF800A0574629E000BF4FF4806630
:1023F000B44200D28026F21C4B46D8460BF10101B4
:102400005348FEF76FFF314608F10400FDF74EFF19
:102410008046000AFFF7EAFB08F0FF00FFF7E6FB43
:102420004B46012269464A48FEF700FF18B99DF85D
:102430000000062811D07F1C052F00D301255AEA81
:102440000500D3D00CB1002D9CD0002426468DF879
:1024500000402746DFF8F88020E002984FF0010A9C
:102460003044B442029009D90198A41BB0F5E07F32
:1024700002D0401C0190DFE70525DDE70024DBE703
:102480000420FFF7B3FB4B46012269463048FEF7B4
:10249000CDFE40B17F1C052F00D3012554EA050075
:1024A000EED0E5B14EE09DF80000062815D01828C2
:1024B000F1D14B46012269462548FEF7B7FE0028B8
:1024C000E9D19DF800001828E5D10220FEF7E6F8D2
:1024D000D8F8000040680225DDE70124DBE7012091
:1024E0008BF801008BF80260FF208BF803005C463C
:1024F00004202654401CC0B28428FAD34E464B46D2
:102500008322611C1248FEF7EDFE8021201DFDF79D
:10251000CDFE0446000AFFF769FBE0B2FFF766FB59
:102520003346012269460A48FEF780FE50B99DF8FD
:102530000000182806D10220FEF7B0F8D8F80000F5
:102540004068022509B02846BDE8F08F60000020F1
:10255000680400200907090E002804DB00F1E020D0
:1025600080F80014704700F00F0000F1E02080F8C0
:10257000141D704702E008C8121F08C1002AFAD1D2
:1025800070477047002001E001C1121F002AFBD1F3
:1025900070470000FEF7D4FAFFF7A6FBFEF720FF16
:1025A0001E481D490C2201604FF4E13141600021B9
:1025B0008160C160C0E904128161C161FEF7CEFD96
:1025C000174C80212046FEF7A3FA164E4FF4005513
:1025D000A0B1002229463046FEF79FFA0122402191
:1025E0002046FEF79AFA0A20FEF758F8002240210A
:1025F0002046FEF792FAFFF7B5F90CE0FF2312220E
:1026000009A10648FEF76EFE012229463046FEF774
:1026100084FAFEF73DFFFEE7001001406804002049
:10262000000402400008024074686520626F747400
:102630006F6E20697320646F776E000000000000E9
:102640000000000001020304060708090000000062
:10265000010203040A0A0D2050726F6772616D6DEA
:10266000696E6720436F6D706C6574656420537587
:10267000636365737366756C6C79210A0D2D2D2D5E
:102680002D2D2D2D2D2D2D2D2D2D2D2D2D2D2D2D7A
:102690002D2D2D2D2D2D2D2D2D2D2D2D2D0D0A20BA
:1026A0004E616D653A2000000D0A3D20202020205B
:1026B000202020202020202020202020202020201A
:1026C000202020202020202020202020202020200A
:1026D00020202020202020202020202020202020FA
:1026E0002020202020202020202020202020203DCD
:1026F000000000000D0A3D20202020202020202066
:10270000202020202020202020202020202042794E
:10271000204D4344204170706C69636174696F6E31
:10272000205465616D2020202020202020202020A2
:1027300020202020202020202020203D00000000FC
:102740000D0A3D2020202020202020202020202095
:102750002028432920434F50595249474854286361
:102760002920323031362053544D6963726F656CC5
:10277000656374726F6E69637320202020202020AF
:10278000202020202020202020203D000D0A3D2058
:1027900020202020202020202053544D3332463446
:1027A000787820496E2D4170706C69636174696F2F
:1027B0006E2050726F6772616D6D696E6720417037
:1027C000706C69636174696F6E2020202020202066
:1027D0002020203D000000000D0A3D3D3D3D3D3DD7
:1027E0003D3D3D3D3D3D3D3D3D3D3D3D3D3D3D3D19
:1027F0003D3D3D3D3D3D3D3D3D3D3D3D3D3D3D3D09
:102800003D3D3D3D3D3D3D3D3D3D3D3D3D3D3D3DF8
:102810003D3D3D3D3D3D3D3D3D3D3D3D3D3D3D3DE8
:1028200000000000442800080000002020000000F4
:10283000742500086428000820000020A808000073
:1028400084250008000000000000000000000000D7
:102850000000000001000000100000000000000067
:042860000024F4005C
:040000050800018965
:00000001FF
