S32508000000080D00209D010008272000085717000825200008F1070008312700080000000085
S3250800002000000000000000000000000025220008F307000800000000ED2000082B230008F6
S32508000040B7010008B7010008B7010008B7010008B7010008B7010008B7010008B701000892
S32508000060B7010008B7010008B7010008B7010008B7010008B7010008B7010008B701000872
S32508000080B7010008B7010008B7010008B7010008B7010008B7010008B7010008B701000852
S325080000A0B7010008B7010008B7010008B7010008B7010008B7010008B7010008B701000832
S325080000C0B7010008B7010008B7010008B7010008B7010008B7010008B7010008B701000812
S325080000E0B7010008B7010008B7010008B7010008B7010008B7010008B7010008B7010008F2
S32508000100B7010008B7010008B7010008B7010008B7010008B7010008B7010008B7010008D1
S32508000120B7010008B7010008B7010008B7010008B7010008B7010008B7010008B7010008B1
S32508000140B7010008B7010008B7010008B7010008B7010008B7010008B7010008B701000891
S32508000160B7010008B7010008B7010008B7010008B7010008B7010008B70100080000000031
S32508000180B7010008B7010008DFF80CD000F068FA0048004725320008080D00200648804794
S325080001A006480047FEE7FEE7FEE7FEE7FEE7FEE7FEE7FEE7FEE7FEE7CD2300088901000820
S325080001C02DE9F05F0546002092469B4688460646814640241BE0284641464746224600F06E
S325080001E077F853465A46C01A914110D311461846224600F05EF82D1A67EB01084F462246B8
S325080002000120002100F055F817EB00094E41201EA4F10104DFDC484631462A464346BDE881
S32508000220F09F40EA01039B0703D009E008C9121F08C0042AFAD203E011F8013B00F8013B75
S32508000240521EF9D27047D2B201E000F8012B491EFBD270470022F6E710B513460A46044673
S325080002601946FFF7F0FF204610BD10B5002200E0521C835C8C5CA34201D1002BF8D1D8B2C8
S32508000280E1B2401A10BD30B50B46014600202022012409E021FA02F59D4205D303FA02F5EC
S325080002A0491B04FA02F52844151EA2F10102F1DC30BD202A04DB203A00FA02F100207047A1
S325080002C09140C2F1200320FA03F3194390407047202A04DB203A21FA02F00021704721FAF3
S325080002E002F3D040C2F1200291400843194670472DE9FE4F804681EA0300C00F0C4600909C
S3250800030021F0004123F00045B8EB0200A94105D24046214690461C460B46024623F00040AE
S32508000320104347D0270DC7F30A00C3F30A510290401A019040286BDAC3F3130040F4801B7A
S325080003400098924620B10023D2EB030A63EB0B0B01985946C0F140025046FFF7AAFF064651
S325080003600D4650465946019A00F08CF910EB08006141002487EA115284EAE7731A4340D005
S32508000380009A62B3019A012A4FEA075215DC001B61EB02014FF0004202EA0752CDE900422F
S325080003A0001C41F5801132462B4600F08CF903B0BDE8F08F40462146F9E7001B61EB0201E0
S325080003C0001C41F5801300185B412018A2F5001747EB030140EAD570B6196D4111E06D0808
S325080003E04FEA360645EAC0754FEA0752001B61EB0201001C41F5801149084FEA3000001964
S32508000400514132462B4603B0BDE8F04F00F04CB90098012240000023D0EB020263EBE07349
S32508000420009821464FEAE074B8EB000061EB0401E9E783F000435BE781F0004158E72DE95F
S32508000440FE4F81EA030404F0004421F0004100944FF0000B23F0004350EA01045ED052EA68
S3250800046003045BD0C3F30A54C1F30A552C44A4F2F3340194A0FB0254C1F3130141F48011D4
S32508000480C3F3130343F4801301FB024400FB034E840A970A44EA815447EA8357A4FB0768DF
S325080004A002958D0A05FB07854FEA932C04FB0C542705029D4FEA065847EA1637B5EB080590
S325080004C06EEB070C870E920E47EA811742EA8312A7FB0201B6EB0B0164EB00042B0D43EAD9
S325080004E00C335E1844EB1C50DA465146E7FB0201C5F313044FEA0B3343EA14534FEA0432B9
S32508000500019C43EA0603A4F10C040294009CCDE900B400F0D8F803B0BDE8F08F00200146BB
S32508000520F9E72DE9F04D81EA030404F0004B21F0004514464FF0000A23F0004150EA05023B
S3250800054020D054EA01021DD0C5F30A570246C5F31303C1F31300C1F30A5640F4801543F465
S325080005608013A7EB0608101BD64608F2FD3873EB050002D308F1010801E092185B41B8F1BA
S32508000580000F03DA00200146BDE8F08D00204FF48011064684460EE0171B73EB050705D36C
S325080005A0121B63EB050306434CEA010C49084FEA300092185B4150EA0107EDD152EA0300DF
S325080005C012D082EA040083EA0501084305D0101BAB4106D20122002306E000224FF0004369
S325080005E002E06FF0010253101AEB06004CEB085110EB0A0041EB0B01BDE8F04D00F054B890
S32508000600C1F30A52C1F3130140F2FF3341F480119A4202DA00200146704740F233439A4270
S32508000620A2F2334202DC5242FFF752BEFFF741BE30B5041E71F1000404DB4FF000444042E5
S3250800064064EB0101141E73F1000405DB1C464FF00043524263EB0403994208BF904230BD93
S32508000660064C074D06E0E06840F0010394E8070098471034AC42F6D3FFF78AFD2039000829
S3250800068040390008202A06DBCB17203A41FA02F043EAE07306E041FA02F3D040C2F12002BC
S325080006A0914008431946704710B5141E73F1000408DA401C41F1000192185B411A4301D1B5
S325080006C020F0010010BD2DE9F04D92469B4611B1B1FA81F202E0B0FA80F220329046FFF726
S325080006E0E8FD04460F4640EA0A0041EA0B0153465A46084313D0114653EA010019D0C8F15F
S3250800070040025046FFF7E4FD05460E46504659464246FFF7CEFD084305D0012004E0204674
S325080007203946BDE8F08D0020054346EAE0762C4337430A986305E40AA0EB08000022FD0A7F
S3250800074044EA47540A3002D500200146E9E7010510196941DDE9084500196941BDE8F04DE9
S32508000760A2E770B58C1810F8015B15F0070301D110F8013B2A1106D110F8012B03E010F85F
S32508000780016B01F8016B5B1EF9D12B0705D40023521E0DD401F8013BFAE710F8013BCB1A79
S325080007A0921C03E013F8015B01F8015B521EF9D5A142D8D3002070BD0C4808B5016841F01A
S325080007C080510160006800F08050009000F0EEFA06481038016841F480210160006800F4B7
S325080007E080200090BDE8084000F0C2BA40380240FEE77047064A136823F440731360136889
S325080008001360136843F001031360017070470000103C0240084910B50C6824F440740C60BA
S325080008200C6844F440740C600C6844F001040C600260436010BD0000103C0240074A136899
S3250800084023F440731360136843F480731360136843F001031360018070470000103C02404A
S32508000860074A136823F440731360136843F400731360136843F0010313600160704700008C
S32508000880103C024017490868C206174805D5C26942F01002C26110220A600A68920605D5D9
S325080008A0C26942F00802C26120220A600A68520605D5C26942F00402C26140220A600A688C
S325080008C0120605D5C26942F00202C26180220A600A68920705D5C26942F02002C2610220DF
S325080008E0086070470C3C0240E808002070B5114904460020C86100F0A9F906460E4D09E0FD
S32508000900601C07D024B100F0A1F9801BA04201D9032070BD2868C003F2D42868C00701D02F
S3250800092001202860286810F0F200F2D0FFF7AAFF012070BDE80800200C3C024070B50546C5
S325080009405FF0000400F032F80A2802D008280BD004E0291911F8011C0D2912D0802C07D323
S325080009600CA001F079FCEBE7002CEBD0641EE9E7A0F120015E2901D90D28E3D12855641C53
S32508000980E0E709A001F068FC0020291901F8010C70BD000020436D642073697A65206F76DB
S325080009A065722E0D0A0000000D0A000008B500208DF80000684601F037FC0028FAD09DF83B
S325080009C0000008BD70B5044600F040F90546601C02D004480078044400F038F9401BA042A9
S325080009E0FAD370BD780300202DE9F0471B4E05461446307E1F468946012808D0012030764F
S32508000A004CF250384046FFF771FF18B114E00220BDE8F0879DB1012D16D0022D19D0224639
S32508000A203B464846FFF7F6FE4046FFF75FFF0C490A6822F001020A6000213176E8E7E1B265
S32508000A404846FFF7D7FEEFE7A1B24846FFF7F6FEEAE721464846FFF703FFE5E7E8080020F4
S32508000A60103C0240074900200A68002A09DA054A054B0C3A1360054B13600968002900DA5C
S32508000A8001207047103C024023016745AB89EFCD2DE9F84FDFF87CB100224FF001084FF018
S32508000AA0030A4FF00F090BF1040E00BF0B6808FA02F42340A3426ED14D68022D01D0122D11
S32508000AC00ED1D50800EB850CDCF820505607F70E09FA07F6B5430E69BE402E43CCF8206008
S32508000AE0066855000F790AFA05FC07F0030726EA0C06AF40374307604E68012E05D0022EBB
S32508000B0003D0112E01D0122E0ED18668CF6826EA0C06AF40374387604668A6430C79C4F35B
S32508000B200014944034434460C6688C6826EA0C06AC403443C4604C68E40065D5364C2568F8
S32508000B4045F480452560246822F0030504F480440094324C2E19D6F8084895072F0F09FA4E
S32508000B6007F5AC432E4DA84201D1002524E02D4DA84201D101251FE02B4DA84201D1022566
S32508000B801AE02A4DA84201D1032515E0284DA84202D1042510E037E0264DA84201D1052542
S32508000BA00AE0254DA84201D1062505E0234DA84201D1072500E00825BD402543C6F8085817
S32508000BC0DBF800405D464E689C43F60300D51C432C60DEF8004075464E689C43B60300D50F
S32508000BE01C432C600B4D08352C684E689C43F60200D51C432C60074D0C352C684E689C43C8
S32508000C00B60200D51C432C60521C102AFFF44EAFBDE8F88F003C01404438024000300140DE
S32508000C20000002400004024000080240000C0240001002400014024000180240001C024026
S32508000C400AB1816170470904FBE700000148806870470000780300200248816802781144BE
S32508000C6081607047780300200B4810B5016841F400710160016841F480610160016841F42D
S32508000C8080710160032000F061F8002000F006F800F024F8002010BD003C024070B50D4D84
S32508000CA004464FF47A712878B1FBF0F00A490968B1FBF0F000F01BFC48B9102C07D20022F3
S32508000CC02146501E00F022F800206C6070BD012070BD000078030020840300200A4808B56F
S32508000CE0016841F480410160006800F4804000900548001F016841F080510160006800F0EA
S32508000D008050009008BD000044380240F0B40E4B1B680C46C3F30223C3F10705042D00D96B
S32508000D200425191D072901D2002300E0DB1E012606FA05F1491E214099409E40761E1640C1
S32508000D403143F0BC01F0F0BD0CED00E0064900F0070208684FF6FF03184040EA0220034AFE
S32508000D6010430860704700000CED00E00000FA0570B50C490120C1F8A400FFF767FF04467D
S32508000D804FF47A76084D06E0FFF760FF001BB04201D9032070BD6868C0430007F4D4002089
S32508000DA070BD000000000E4200700040014901200862704700000E422DE9F8430546006818
S32508000DC04FF00109C1074FF0000601D1400727D5DFF80C81C8F86860FFF738FF0746414CA7
S32508000DE005E000BFFFF732FFC01B022857D820680001F7D468688101287A41EA0070394981
S32508000E0084310860C8F86890FFF720FF074604E0FFF71CFFC01B022841D820680001F7D525
S32508000E202878800752D52F484030016841F08051016000682C4C00F080500090206840F4B7
S32508000E4080702060FFF702FF074604E0FFF7FEFEC01B022823D82068C005F7D5214C7034D0
S32508000E60206810F4407020D0A98901F4407181421BD020681D4920F44070C1F800900E6049
S32508000E8020602068C00710D0FFF7E0FE064641F2883707E0FFF7DAFE801BB84202D903203B
S32508000EA0BDE8F88320688007F4D5E9680D48C1F301220830032A0BD0016821F4F811016087
S32508000EC02068A989C1F30B01084320600020E7E70268074B22F4F81219400A430260EFE717
S32508000EE0000047420038024000700040400E4742FFFCFF0F2DE9F0470E46050065D0DFF89F
S32508000F001481D8F80000F7B200F00F00B04207D288F80070D8F8000000F00F00B04254D115
S32508000F2028683D4C810712D5400703D5206840F4E05020602878000703D5206840F46040B5
S32508000F4020602068A96820F0F000084320602878C0072DD0304968680839012812D002287C
S32508000F6013D0032811D00968890700292DDA216821F0030101432160FFF768FE814641F28A
S32508000F80883A0EE009688903EFE709688901ECE7FFF75CFEA0EB0901514502D90320BDE8D4
S32508000FA0F0872068696800F00C00B0EB810FEFD1D8F80010404601F00F01B14207D90770BB
S32508000FC0006800F00F00B04201D00120E7E72878400705D52068E96820F4E0500843206041
S32508000FE02878000706D52068296920F4604040EAC100206000F036F82168084AC1F3031167
S32508001000515CC840064908600020FFF747FE0020C5E70000003C02400838024008390008E6
S32508001020840300200448054900680968044AC1F38221515CC840704784030020083802404E
S32508001040183900080448054900680968044AC1F34231515CC84070478403002008380240AC
S3250800106018390008154810B5006810F00C02144813D04110042A0FD0082A0ED10F4C241F25
S325080010802268236802F03F025B0207D52068C0F38810A0FB010106E0084610BD2168C1F313
S325080010A08811A1FB00010023FFF78AF82168C1F30141491C4900B0FBF1F010BD0838024049
S325080010C00024F4002DE9F84F050076D02878DFF8F8B2BE4CC00749D0DBF800105846C1F302
S325080010E08101012908D00068C0F3810002280AD1201D0068400206D52068800336D5686815
S325080011000028E2D032E06868B0F5803F10D0B0F5A02F206810D020F480302060206820F405
S32508001120802020606868A0B1FFF790FD06460CE0206840F48030F4E740F480202060F7E72C
S32508001140FFF784FD801B642873D820688003F7D50CE0FFF77BFD064605E000BFFFF776FD0E
S32508001160801B6428F0D820688003F7D42878DFF8608280074FF000093ED5DBF800105846E0
S3250800118011F00C0F09D00068C0F3810002280BD18D48001F0068400206D42068800715D539
S325080011A0E868012809D111E0E868B8B10120C8F80000FFF74BFD064605E002E1FFF746FDB8
S325080011C0801B0228C0D820688007F7D52068296920F0F80040EAC10020600DE0C8F80090FF
S325080011E0FFF734FD064604E0FFF730FD801B02281FD820688007F7D42878000722D5724E73
S32508001200744869696C3671B101210160FFF71EFD074604E0FFF71AFDC01B022809D830681E
S325080012208007F7D50EE0C0F80090FFF70FFD074605E083E0FFF70AFDC01B02287ED8306890
S325080012408007F7D42878400768D5DFF87CA100270AF1380ADAF80000C0000BD4DAF800105F
S3250800126041F08051CAF80010DAF80000012700F080500090584E3068C00510D4306840F48F
S3250800128080703060FFF7E2FC009005E0FFF7DEFC0099401A022851D83068C005F6D54A4EA1
S325080012A0A868683601280FD00528306810D020F001003060306820F004003060A868B8B16F
S325080012C0FFF7C4FC00900FE0306840F00100F4E740F004003060F7E7FFF7B8FC0099411AE7
S325080012E041F28830814264D830688007F4D50EE0FFF7ACFC009007E0FFF7A8FC0099411A7D
S3250800130041F28830814254D830688007F4D42FB1DAF8001021F08051CAF80010A869C0B304
S32508001320DBF80010C1F3810102294AD00228484607D0C8F86000FFF789FC00E039E00546D3
S325080013403AE04746C8F86000FFF780FC064604E0FFF77CFC801B02282BD820688001F7D40C
S32508001360D5E907010843A96A1C4A490802EB01416A6A41EA8211084395F82C1040EA016123
S325080013801148001F016001203866FFF75FFC054605E014E0FFF75AFC401B022809D82068F8
S325080013A08001F7D50BE000BFFFF750FC401B022802D90320BDE8F88F20688001F4D4002046
S325080013C0F8E70120F6E70000083802400038024000004742800E4742007000400000FFFFD8
S325080013E00068503050F8210070470068503040F82120704770B5040002D0607F10B106E03E
S32508001400012070BD00202077204600F049F8022060772168CA204862216853204862204600
S3250800142000F066FEFF25042618BB206881681B4A114081602168886862681043D4E90423A7
S325080014401A43104388602168E068086120680169228941EA024101612068C16821F08001FC
S32508001460C16020688068800607D4204600F024F818B1206845626677C2E72068016C21F472
S32508001480802101642068016CA269114301642068456201206077002070BD0000BFFF8FFFBF
S325080014A000680349884202D10249012008607047002800403C0E474270B504460068C16807
S325080014C021F0A001C160FFF7C1FB05464FF47A7607E000BFFFF7BAFB401BB04201D9032060
S325080014E070BD2068C0688006F4D5002070BD10B5401EB0F1807F01D3012010BD4FF0E0249D
S3250800150060610F21601701F00FFA0020A06107202061002010BD70B5040004D094F83900E3
S32508001520002510B106E0012070BD84F83850204600F022F8242084F839002068C16821F450
S325080015400051C160204600F06BFF2068016921F4904101612068416921F02A014161206879
S32508001560C16841F40051C160E563202084F8390084F83A00002070BD10B586B004461421D3
S325080015806846FEF767FE14492068884221D11348016841F010010160006800F01000059030
S325080015A00E481438016841F0010101600068694600F0010005904FF4C0600090022001903B
S325080015C00120029003200390072004900448FFF75FFA06B010BD00000010014044380240AC
S325080015E0000002402DE9F843044690F83A00994616460D4620284FD195B18EB194F83800FF
S32508001600012849D0012084F838000027E763222084F83A00FFF71AFBA6858046E68531E0C4
S325080016200120BDE8F883E08D401EE085A0684346B0F5805F4FF000024FF020012046CDF84A
S32508001640009004D001F042F898B10320E9E701F03DF80028F9D1206900282068406803D0E5
S32508001660C1B225F8011B0DE0C0F3080125F8021B08E0206900282068406801D000F07F00C4
S3250800168005F8010BE08D0028CDD1202084F83A0084F838700020C4E70220C2E72DE9F843FF
S325080016A0044690F839001F4616460D46202850D1A5B19EB194F8380001284AD0012084F84B
S325080016C038004FF00008C4F83C80212084F83900FFF7BCFAA6848146E68426E00120BDE83C
S325080016E0F883E08C401EE084A0684B46B0F5805F4FF000024FF080012046009703D000F055
S32508001700E5FFE8B90DE000F0E1FFC8B928882168C0F308004860206908B16D1C05E0AD1CE3
S3250800172003E0216815F8010B4860E08C0028D8D14B46002240212046009700F0C7FF08B1B1
S325080017400320CCE7202084F8390084F838800020C5E70220C3E7FEE710B5A0B0802168469B
S32508001760FEF778FD4FF4FC6429A000F075FD2FA000F072FD35A000F06FFD3CA000F06CFD8F
S3250800178042A000F069FD49A1204600F04DFC27A1204600F049FC2DA1204600F045FC33A1DE
S325080017A0204600F041FC39A1204600F03DFC6846FFF7C4F8684600F04FFD43A16846FEF74E
S325080017C054FDB0B142A16846FEF74FFDA0B142A16846FEF74AFD90B141A16846FEF745FD51
S325080017E080B141A000F038FD44A1204600F01CFCBAE74EF6EE6007E04DF6DD5004E04CF6A1
S32508001800CC4001E045F65A2000F094F920B010BD0D0A20494150204D61696E204D656E7593
S3250800182020285620302E31290D0A00002055706461746520496D6167652D2D2D2D2D2D2D4C
S325080018402D2D207570646174650A00002055706C6F616420496D6167652D2D2D2D2D2D2DB0
S325080018602D2D2075706C6F61640A000020457261736520496D6167652D2D2D2D2D2D2D2DD6
S325080018802D2D2D2065726173650A00002045786563757465204150502D2D2D2D2D2D2D2D1D
S325080018A02D2D2D2D2D2072756E0A00000A20494150204D61696E204D656E7520285620306E
S325080018C02E31290A00000000757064617465000075706C6F61640000657261736500000050
S325080018E072756E617070000020496E76616C696420434D4420210D0A0000000020496E76C4
S32508001900616C696420434D4420210A0000210148FFF766BD8803002010B507A000F09CFCBE
S325080019200A4948680A4A50601060096881F308888047002010BD00000D0A2052756E2074F9
S325080019406F206170702E0D0A0000000000400008680300203EB500200090019002902F4854
S3250800196000F0E8FE041E4FF6FF7529DD2CA000F073FC30A1284600F057FB33A000F06CFCCB
S32508001980334A34A1284600F04FFB314800F064FC2146684600F0D6F831A000F05DFC6A46D9
S325080019A032A1284600F040FB684600F055FC32A000F052FC33A1284600F036FB00203EBD30
S325080019C0601C0DD0A01C15D0E41C1DD030A000F043FC34A1284600F027FB6FF003003EBD61
S325080019E035A000F039FC39A1284600F01DFB4FF0FF303EBD3AA000F02FFC3EA1284600F0F4
S32508001A0013FB6FF001003EBD3FA000F025FC44A1284600F009FB6FF002003EBDE8030020B1
S32508001A200D0A20557064617465204F766572210D0A000000200A20557064617465204F7678
S32508001A406572210A00000000204E616D653A2000E8070020204E616D653A202573000000D9
S32508001A600D0A2053697A653A200000000A2053697A653A20257300002042797465732E0D13
S32508001A800A0000002042797465732E0A0000000020526563656976652046696C65642E0DAD
S32508001AA00A0000000A20526563656976652046696C65642E0A0000000D0A20496D616765CB
S32508001AC020546F6F20426967210D0A000A20496D61676520546F6F20426967210A00000080
S32508001AE00D0A20557064617465206661696C6564210D0A000A2055706461746520666169A4
S32508001B006C6564210A0000000D0A2041626F7274656420627920757365722E0D0A00000040
S32508001B200A2041626F7274656420627920757365722E0A00024600210148FFF756BC0000E0
S32508001B4088030020F0B500220D4B154614460A27B1FBF3F630368654B1FBF3F603FB161138
S32508001B60B3FBF7F3521C861816F8016C302E00D125B16D1C641C0A2CEAD3F0BD0022F9E788
S32508001B8000CA9A3B2DE9F04104461D4616460F462A2000F013F9204600F0F0F8304600F009
S32508001BA0EDF82B2000F00AF9384600F0E7F8284600F0E4F8BDE8F0412C2000F0FFB870B57F
S32508001BC00646EF2300211A460846FFF7DBFF00240025304600F0D2F86D1CF02DF9D3641C8F
S32508001BE0F02CF5D370BDF8B50E4600F1100301461F46EF220020FFF7C5FF0025002430466B
S32508001C0000F0BCF8641C102CF9D36D1CF02DF5D34FF6FF703B460090EF221946002000F0D7
S32508001C2001F8F8BD2DE9FE4F151ACDE900104FF000085E1A47464FF0FF30002D02DD4FF08B
S32508001C40010102E003D14FF000018B4602E08346C5F10005002E02DD4FF0010002E003D144
S32508001C604FF00000824602E08246C5F10006B54201DD2C4600E03446601C4FF000090290F2
S32508001C8016E000BFDDE900100C9A00F016F8A8443744A04504DD0198A8EB04085844019075
S32508001CA0A74203DD00983F1B5044009009F1010902998945E6D3BDE8FE8F10B514460B466F
S32508001CC00246FFF75FFF2046BDE8104000F056B82DE9F05F1C4688468146E0282CD808464B
S32508001CE0B8F1E00F28D8203AD6B200F10F0309F1070241464846FFF745FF1E48002C4FF036
S32508001D0000041BD04FEA000B04EB061100251BF8017008EB040AF80705D0514609EB05006E
S32508001D200A9AFFF7CAFF6D1C7F08EDB2082DF2D3641CE4B2102CE7D3BDE8F09FDFF83880BA
S32508001D404FEA000904EB0611002519F80170F80701D00A9801E0D8F8000000F00FF86D1CE3
S32508001D607F08EDB2082DF2D3641CE4B2102CE9D3E2E70000183300080000002010B50446DC
S32508001D80012210210548FEF75BFFC4F3072000F023F8E0B2BDE8104000F01EB800000240CD
S32508001DA010B50446012210210348FEF749FF2046BDE8104000F010B80000024010B50446C6
S32508001DC0002210210348FEF73BFF2046BDE8104000F002B80000024070B5144E05460022ED
S32508001DE001213046FEF72CFF0024002280213046FEF726FF280601D5012200E0002240211C
S32508001E003046FEF71DFF012280213046FEF718FF6806641C050EE4B2082CE6D33046BDE848
S32508001E20704001221146FEF70BBF00000000024010B5634C002220212046FEF701FFC8204F
S32508001E40FEF7C0FD012220212046FEF7F9FE1420FEF7B8FD3620FFF7B1FF0020FFF7A0FF7D
S32508001E603A20FFF7ABFF0520FFF79AFFB220FFF7A5FF0C20FFF794FF0C20FFF791FF0020B3
S32508001E80FFF78EFF3320FFF78BFF3320FFF788FFB720FFF793FF3520FFF782FFBB20FFF712
S32508001EA08DFF1920FFF77CFFC020FFF787FF2C20FFF776FFC220FFF781FF0120FFF770FFED
S32508001EC0C320FFF77BFF1220FFF76AFFC420FFF775FF2020FFF764FFC620FFF76FFF0F20B0
S32508001EE0FFF75EFFD020FFF769FFA420FFF758FFA120FFF755FFE020FFF760FFD020FFF7DC
S32508001F004FFF0420FFF74CFF0D20FFF749FF1120FFF746FF1320FFF743FF2B20FFF740FF3E
S32508001F203F20FFF73DFF5420FFF73AFF4C20FFF737FF1820FFF734FF0D20FFF731FF0B20E8
S32508001F40FFF72EFF1F20FFF72BFF2320FFF728FFE120FFF733FFD020FFF722FF0420FFF747
S32508001F601FFF0C20FFF71CFF1120FFF719FF1320FFF716FF2C20FFF713FF3F20FFF710FFC3
S32508001F804420FFF70DFF5120FFF70AFF2F20FFF707FF1F20FFF704FF1F20FFF701FF202065
S32508001FA0FFF7FEFE2320FFF7FBFE2120FFF706FF1120FFF703FFBDE810402920FFF7FEBE9A
S32508001FC00000024030B587B014216846FEF742F912480024016841F080010160016801F02E
S32508001FE080010591016841F00101016000680C4D00F0010005902246F1212846FEF720FE7D
S32508002000F12000900120CDE901040220039069462846FEF73DFD07B030BD000030380240E6
S3250800202000000240FEE770470FB4FC212DE9F047C0B0824601A8FEF70DF900244AAA01A8EA
S32508002040499900F05FFC8146002648F23048264D01AF3AE00A2A23D0287800F10801E82997
S325080020603CD9687841461030C0B268702E70FFF7BAFD6878E02805D96E7030462E704146C2
S32508002080FFF7B1FDCDF800A03A5D002369782878FFF71EFE641C2878E4B20830287012E064
S325080020A02E70687841461030C0B26870FFF79BFD6878E02805D96E7030462E704146FFF7C0
S325080020C092FD641CE4B2302C02D83A5D002AC1D140B04846BDE8F0075DF814FBCDF800A0E1
S325080020E000236978D4E70000640300207047000070B504460068C168490614D44FF0FF312F
S32508002100C160FEF7A3FD05464FF47A7607E000BFFEF79CFD401BB04201D9032070BD20684A
S32508002120C0684006F4D5002070BD70B50C46054604E0284600F078F8012804D0641EF8D250
S325080021404FF0FF3070BD002070BD2DE9F84F884600210646C8F80010924611466846FFF74E
S32508002160E4FF4FF0FF3978BB9DF80000A2281DD010DC182832D006DC01281DD0022824D034
S32508002180042849D14CE0412834D0612832D0A12842D109E0A0F1A30107293DD2DFE801F0D6
S325080021A0080A0C0E11151800082413E0102411E020240FE040240DE080240BE04FF4807419
S325080021C008E04FF4007405E026E04FF4806401E04FF4006401253070671D15E05146684634
S325080021E0FFF7A3FFC0B99DF80000182814D1C8F8009015E00120BDE8F88F70195146FFF75E
S3250800220094FF48B96D1CADB2BD42F6D3B178707881F0FF01884201D04846ECE7C8F80040EE
S325080022200020E8E77047000010B50146642301220348FFF7D7F908B1002010BD012010BD8F
S32508002240A803002001B56423012269460148FFF725FA08BDA803002010B5044603E000BFF7
S32508002260FFF7F0FF641C20780028F9D110BD70B5002204781346302C04D14478782C0AD00D
S32508002280582C08D06FF02F05845C74B36B2C2ED04B2C2CD030E082780AB30224025D5AB1DB
S325080022A0A2F14105052D0AD9A2F16106052E06D91135092D07D913E001200B6011E0A2F1B7
S325080022C03006092E01D8303A04E0052D01D8373A00E0573A641C02EB03130B2CDED302E022
S325080022E000200B2C00D3002070BD0B6002E01AB1980207E0012015E06D2C01D04D2C03D1F3
S3250800230012B118050860F5E7A4F13006092E08D803EB830305EB4303521C23440B2AB3D36F
S32508002320E1E700200B2ADED270BDFEF795BC000030B597B030216846FDF78CFF14210CA8BC
S32508002340FDF788FF00251F481195129513951495016841F080510160006800F08050159031
S325080023601948016841F4804101600068022400F480401590092000904FF4803001900120E9
S32508002380CDE905048005079008AA0420A82182E813000B906846FEF795FE0CA90F2081E81A
S325080023A031004FF4A0500F90E002109005210CA8FEF7A0FD20021490119411A8FEF7FCFC0D
S325080023C017B030BD40380240007000401048016841F4700101600F48016841F001010160B5
S325080023E00C4A00210832116002680B4B1A400260031D0A4A1A60026822F480220260054872
S325080024000C30016002495806803908607047000088ED00E000380240FFFFF6FE103000246B
S325080024202DE9F041044600680169E26821F44051114301612169A068E2690843616911433F
S3250800244022680843D16849F20C6399430143D16020684169A26921F4407111434161E26921
S325080024606425B2F5004F9748974922684FF032083FD08A4201D082427CD1FEF7E3FD00EB90
S32508002480C00101EB001061688900B0FBF1F6FEF7D9FD00EBC00101EB001061688900B0FB1D
S325080024A0F1F0B0FBF5F06FF01801484306EB800108EB0110B0FBF5F000F0F006FEF7C2FDFA
S325080024C000EBC00101EB001061688900B0FBF1F0B0FBF5F006EB0016FEF7B4FD00EBC0017F
S325080024E001EB001061688900B0FBF1F7FEF7AAFDD2E08A4201D082423DD1FEF7A3FD00EBB0
S32508002500C00101EB001061684900B0FBF1F0B0FBF5F00601FEF796FD00EBC00101EB00108B
S3250800252061684900B0FBF1F7FEF78CFD00EBC00101EB001061684900B0FBF1F0B0FBF5F094
S325080025406FF01801484307EB800108EBC100B0FBF5F000F0F80006EB4006FEF773FD00EB44
S32508002560C00101EB001061684900B0FBF1F7FEF769FD3CE055E0FEF755FD00EBC00101EB60
S32508002580001061684900B0FBF1F0B0FBF5F00601FEF748FD00EBC00101EB001061684900F4
S325080025A0B0FBF1F7FEF73EFD00EBC00101EB001061684900B0FBF1F0B0FBF5F06FF01801FC
S325080025C0484307EB800108EBC100B0FBF5F000F0F80006EB4006FEF725FD00EBC00101EBDD
S325080025E0001061684900B0FBF1F7FEF71BFD00EBC00101EB001061684900B0FBF1F0B0FB1A
S32508002600F5F06FF01801484307EB800108EBC100B0FBF5F000F00700216830448860BDE88C
S32508002620F081FEF7FFFC00EBC00101EB001061688900B0FBF1F6FEF7F5FC00EBC00101EB21
S32508002640001061688900B0FBF1F0B0FBF5F06FF01801484306EB800108EB0110B0FBF5F0E5
S3250800266000F0F006FEF7DEFC00EBC00101EB001061688900B0FBF1F0B0FBF5F006EB00167A
S32508002680FEF7D0FC00EBC00101EB001061688900B0FBF1F7FEF7C6FC00EBC00101EB00107F
S325080026A061688900B0FBF1F0B0FBF5F06FF01801484307EB800108EB0110B0FBF5F000F0A4
S325080026C00F00A9E700140140001001402DE9F041984617460E460446069D1DE0681C1BD078
S325080026E02DB1FEF7B3FAA0EB0800A84214D92068C16821F4D071C1602068416921F0010175
S325080027004161202084F8390084F83A00002084F838000320BDE8F0812068006836EA000041
S3250800272004D00020B842D9D00020F3E70120F9E7FEE700002DE9F04FADF2244D80460020C9
S32508002740674FCDF80804DFF894B14320C7F800B0FFF778FD0020044606464FF480194FF0BA
S32508002760FF3ACDF8100400254A460DF20C416846FFF7EBFC88B101286FD0002E00DD641C81
S32508002780052C6BDD1820FFF75DFD1820FFF75AFD00200DF2244DBDE8F08FDDF80C240024C8
S325080027A0524507D042B19DF80100E9B288420BD0152090E00620E9E70620FFF743FDDDF808
S325080027C010040028CFD052E045B140460DF10301FDF727FD0026C7F8048061E09DF8030006
S325080027E0D0B300203F4A0DF1030602E01154401C761C317809B1FF28F8DD00211154394AFB
S3250800280039A14FF6FF70FFF70FFC00200DF2144201E01154401C16F8011F202901D0102884
S32508002820F7DB0021115433A14FF6FF70FFF7FCFB0DF581610DF21440FFF719FDDDF8080499
S325080028406FF47C21C8420AD91820FFF7FBFC1820FFF7F8FC50469CE706E032E03AE00620E5
S32508002860FFF7F0FC432027E00620FFF7EBFCDDF808048EE7FEF7F6F87868002339680268B4
S325080028800220FEF7B1F820B91DA14FF6FF70FFF7CBFB3868001D38607868001D361D7860E6
S325080028A0DDF80C04864206DADDF808143A6801EB0B008242DED30620FFF7C4FC01266D1CF2
S325080028C052E71820FFF7BEFC1820FFF7BBFC6FF002005EE74320FFF7B5FC45E700400008C0
S325080028E070030020E8070020206E616D652025730A0000002073697A652025730A00000008
S325080029002E00000037B514460846064B6A46214600F0ECF804466946002000F07EFC2046C2
S325080029203EBD00001B3200080907090E002804DB00F1E02080F80014704700F00F0000F1E7
S32508002940E02080F8141D704702E008C8121F08C1002AFAD170477047002001E001C1121F06
S32508002960002AFBD1704700002DE9FF5F82B00021DDE90430020DDDF840B0034318D044F69F
S325080029801050A2F2FF3242431514119801281FD0A5EB0B00401C5FEA000A4FF000064E4F69
S325080029A0DFF83891B046504615D5CAF1000413E0119801244AA3012801D16FEA0B0102988C
S325080029C0119AC0E90031C0E9024206B0BDE8F09FCBF10000DFE704460021404A491842EB88
S325080029E00450CDE9001012E0E00707D032463B4640464946FDF723FD8046894632463B464F
S32508002A0010461946FDF71BFD06460F466410002CEAD1DDE90401DDE90023BAF1000F06DA9D
S32508002A20FDF70DFD42464B46FDF709FD05E0FDF778FD42464B46FDF774FD04460E460022EB
S32508002A40284BFDF7F5FD03D84FF0FF30014607E00022254B20463146FDF74AFCFDF7D0FD2E
S32508002A60102409E0002C0ADB0A220023FDF7A8FB039B30321A55641E50EA0102F2D1641CC3
S32508002A80039AC4F111031444119A012A03D0012208430DD10AE0084304D000204FF0110BF1
S32508002AA0119072E7A3EB0B056D1E0DE05B4504DD4FF0000205F1010504E003DA4FF0000238
S32508002AC0A5F10105002AECD002981199C0E90231C0E9004579E70000000014400000F03F75
S32508002AE0300000000000F0430000E03F2DE9FF4F95B09B468946064600250FE2252877D1F6
S32508002B0000242746F84A0121059400E0044316F8013F203B01FA03F01042F7D130782A2847
S32508002B2011D06FF02F033078A0F13002092A16D8059A44F0020402EB820203EB42021044B9
S32508002B40761C0590EFE759F8042B0592002A03DA504244F40054059044F00204761C307825
S32508002B602E2816D116F8010F44F004042A280DD06FF02F023078A0F13003092B09D807EB7E
S32508002B80870302EB4303C718761CF3E759F8047B761C30786C280FD006DC4C2817D06828D5
S32508002BA00DD06A2814D104E0742810D07A280FD10DE044F400140AE044F4801401E044F4C9
S32508002BC040147278824202D104F58014761C761C307866280BD013DC582877D009DC00288D
S32508002BE075D04528F6D04628F4D047281AD19DE118E0632835D0642879D0652812D195E102
S32508002C00702873D008DC6728F1D069286FD06E280DD06F2806D1B5E073282CD0752875D0D8
S32508002C20782874D05A46179990476D1C75E1C4F30250022809D003280DD0D9F8001004287B
S32508002C400DD00D6009F1040967E1D9F80010EA17C1E90052F6E7D9F800100D80F2E70D704E
S32508002C60F0E719F8041B8DF8001000208DF80100EA46012003E059F804AB4FF0FF306107FA
S32508002C804FF0000102D40DE008F101018846B9420FDA8045F8DB1AF808100029F4D108E0DE
S32508002CA008F1010188468142FADB1AF808100029F6D105985B46A0EB080721463846179A1D
S32508002CC000F094FA284400EB080507E04DE029E10DE01AF8010B5A4617999047B8F1010802
S32508002CE0F7D25B4621463846179A13E142E00A220092C4F302524FF0000A022A08D059F849
S32508002D0004CB032A4FEAEC710AD00DE029E02AE009F1070121F00702F2E802C1914609E0C0
S32508002D200FFA8CFC4FEAEC71042A03D14FFA8CFC4FEAEC71002907DA0A460021DCF1000CA1
S32508002D4061EB02012D2202E0220504D52B228DF80420012203E0E20701D02022F7E7904639
S32508002D6059E00A2102E010220DE010214FF0000A00910BE010224FF0000A44F00404082704
S32508002D80009203E008224FF0000A0092C4F30252022A05D059F804CB0021032A08D009E070
S32508002DA009F1070121F00702F2E802C1914605E01FFA8CFC042A01D10CF0FF0C4FF00008A1
S32508002DC0220728D5702806D0009B83F0100353EA0A0305D00EE040228DF80420012208E00D
S32508002DE05CEA010206D030228DF804208DF8050002229046009B83F0080353EA0A030AD1E9
S32508002E005CEA010201D1620705D530228DF804204FF001087F1E582804D034A003900EA8F5
S32508002E2002900DE036A0F9E753466046009AFDF7C7F984460398825C0298401E0290027083
S32508002E405CEA0100F0D1029806A9081A00F1200A600702D524F4803400E00127574502DD49
S32508002E60A7EB0A0000E0002000EB0A01009005984144401A0590E00306D45B462146179A9B
S32508002E80059800F0B3F90544002706E001A85A46C05D179990476D1C7F1C4745F6DBE00344
S32508002EA00CD55B462146179A059800F09FF9054404E030205A46179990476D1C0099481E19
S32508002EC000900029F5DC08E0029802995A460078491C0291179990476D1CBAF10001AAF1D6
S32508002EE0010AF1DC65E1000009280100303132333435363738396162636465660000000012
S32508002F00303132333435363738394142434445460000000000F058F90544761C3078002815
S32508002F207FF4ECAD19B02846BDE8F08F620700D4062709F1070222F0070CFCE80223E1465A
S32508002F4003F000485FEA080C02D00FF2702C0DE05FEA045C02D50FF2682C07E05FEAC47CEA
S32508002F6002D00FF2602C01E0AFF2700C4FF0FF3823F00043CDF850C065280CD006DC45288D
S32508002F8009D046281DD047283DD13DE0662818D067287ED138E00021112F01DB112000E09B
S32508002FA0781CCDE9000106A90EA8FFF7DDFCDDE90F010E9A03910021009207F1010A049127
S32508002FC04DE04FF000400097CDE9011006A90EA8FFF7CAFCDDE90F0203920E9B11990022D7
S32508002FE0DDF80CA00093049211B9791C00EB010AB7EB0A0004D4C0F1FF3007F1010A0490C9
S32508003000AAEB0700019044E0012F00DA01270021112F01DD112000E03846CDE9000106A9EB
S325080030200EA8FFF7A1FCDDE90F010E9A0391002104910092BA4621070CD40399514500DACB
S325080030408A46BAF1010F05DD009AAAF10101515C302908D0B84202DA10F1040F06DA0121F4
S32508003060CDE9011015E0AAF10101E9E7002805DC049901440491AAEB000102E0411C51452E
S3250800308000DD8A460499401A401C01904FF000400290200704D40198504501DBCDF804802E
S325080030A000208DF84F0002980DF14F07B0F1004F25D02B200E9002984FF0020800280CDA61
S325080030C0404202902D200E9007E00A210298FDF7DAF83031029007F8011DB8F10001A8F11E
S325080030E00108F2DC02980028EFD1791E0E980870307800F0200040F0450007F8020D12A8BF
S32508003100C01B00F107081498007800B1012000EB0A01019801EBE07105984144401A401E2A
S325080031200590E00306D45B462146179A059800F05DF805441498007818B15A461799904737
S325080031406D1CE00324D55B462146179A059800F04DF805441CE00498002807DBDDE90301BC
S32508003160884203DD0098405C179901E0179930205A469047049805F10105401C049001983A
S32508003180401E019004D12E205A46179990476D1CBAF10001AAF1010ADDDC05E017F8010B54
S325080031A05A46179990476D1CB8F10001A8F10108F4DC5B462146179A0598ABE62D00000021
S325080031C02B000000200000002DE9F041044600251E461746880404D405E039462020B04720
S325080031E06D1C641EF9D52846BDE8F0812DE9F041044600251E469046C80301D5302700E09C
S325080032002027880404D505E041463846B0476D1C641EF9D52846BDE8F0810A68531C0B606A
S3250800322010707047FDF720FDFFF782F8FEF7CAFE31483049002401604FF4E131C0E9011481
S325080032400C21C460C0E904418461C461FEF763F929482A492038C0E900147F218160FF212C
S32508003260C0E9031444618461FEF7C4F8FEF7E0FD48F230442046FEF7A2FC21480460FDF70B
S325080032809BFA204F204C4FF6FF760025276020681EA102683046FEF7C7FE20686D1C001D3B
S325080032A02060282DF3DBFEF731FB024618A13046FEF7BAFEFEF72AFB98B100F2A650B0F528
S325080032C0C04008D000F66C30B0F5204FDDD1FEF741FB48B103E0FEF71FFB0028D5D00020AB
S325080032E004E0FEF739FAD0E745F65A20FEF722FCCBE7000000100140A803002000280040FF
S3250800330000000020004000087003002020257800200A25780A000000000000000000000016
S3250800332000000000000000000000000808080808080800001818000000486C24120000002D
S3250800334000000000000000000000002424247F1212127F12121200000000081C2A2A0A0CFB
S325080033601828282A2A1C080800000022251515152A585454542200000000000C1212120AE5
S3250800338076252911916E0000000606040300000000000000000000000040201010080808A0
S325080033A00808081010204000000204080810101010101008080402000000000008086B1C44
S325080033C01C6B08080000000000000000080808087F08080808000000000000000000000089
S325080033E000000000060604030000000000000000FE000000000000000000000000000000AE
S32508003400000000000606000000008040402020101008080404020200000000182442424214
S325080034204242424224180000000000080E08080808080808083E00000000003C4242422084
S3250800344020100804427E00000000003C4242201820404042221C000000000020302824248A
S3250800346022227E20207800000000007E0202021A26404042221C0000000000382402021A86
S3250800348026424242241800000000007E2222101008080808080800000000003C42424224BE
S325080034A018244242423C0000000000182442424264584040241C0000000000000000181812
S325080034C0000000001818000000000000000000080000000000080804000000402010080416
S325080034E002040810204000000000000000007F0000007F0000000000000000020408102004
S3250800350040201008040200000000003C4242464020101000181800000000001C225A555527
S3250800352055552D42221C00000000000808181414243C224242E700000000001F2222221E46
S3250800354022424242221F00000000007C4242010101010142221C00000000001F22424242A8
S3250800356042424242221F00000000003F4212121E12120242423F00000000003F4212121E85
S3250800358012120202020700000000003C2222010101712122221C0000000000E74242424288
S325080035A07E42424242E700000000003E0808080808080808083E00000000007C1010101010
S325080035C0101010101010110F0000007722120A0E0A121222227700000000000702020202A2
S325080035E002020202427F000000000077363636362A2A2A2A2A6B0000000000E346464A4A65
S3250800360052525262624700000000001C2241414141414141221C00000000003F4242424211
S325080036203E020202020700000000001C2241414141414D53321C60000000003F4242423E1B
S325080036401212222242C700000000007C4242020418204042423E00000000007F49080808CB
S3250800366008080808081C0000000000E74242424242424242423C0000000000E742422224D2
S3250800368024141418080800000000006B494949495555362222220000000000E7422424184A
S325080036A01818242442E70000000000772222141408080808081C00000000007E2120101055
S325080036C008040442423F00000078080808080808080808080808780000000202040408089D
S325080036E00810102020204040001E1010101010101010101010101E0000384400000000003C
S325080037000000000000000000000000000000000000000000000000FF00060800000000008E
S325080037200000000000000000000000000000003C4278444242FC0000000000030202021A9E
S3250800374026424242261A000000000000000000384402020244380000000000604040407899
S325080037604442424264D80000000000000000003C427E0202423C0000000000F08808087E71
S3250800378008080808083E0000000000000000007C22221C023C42423C000000030202023A98
S325080037A04642424242E700000000000C0C00000E08080808083E00000000003030000038A2
S325080037C0202020202020221E0000000302020272120A1612227700000000000E0808080855
S325080037E008080808083E0000000000000000007F9292929292B70000000000000000003B0A
S325080038004642424242E70000000000000000003C42424242423C0000000000000000001B88
S3250800382026424242221E0207000000000000007844424242447840E0000000000000007770
S325080038404C040404041F0000000000000000007C42023C40423E0000000000000008083ED5
S32508003860080808080830000000000000000000634242424262DC000000000000000000E752
S32508003880422424140808000000000000000000EB494955552222000000000000000000768B
S325080038A024181818246E000000000000000000E74224241418080807000000000000007ECA
S325080038C022100808447E000000C0202020202010202020202020C000101010101010101066
S325080038E01010101010101010000608080808081008080808080806000C32C20000000000C6
S32508003900000000000000000000000000000000000102030406070809000000000102030467
S3250800392040390008000000208803000062070008F03A0008880300208009000058290008ED
S32508003940415A80026DFC1F841002290C69184DF80F080804128023FF7F290C490E36841077
S32508003960A22040280FFE3F0220F22702200220FA2F2221022809122912290A2E02201AC9F2
S325080039805E9908165080408040195213FE1F120812042C028001626978290212A012401830
S325080039A0161008B8080F0908090808BF0808091C092C080A78CA1179012A04023CC87F3FD8
S325080039C008180BA83F18210C110B12080A0E960A8A1164602A8004FA0104080D1A108001C8
S325080039E00CF0FFFF0F308001040419246A070C09124809100401131A011914FFFF011A0345
S32508003A00082904E90C3381812A0304261CFCFFFF3F1A400B5AC0282AC00C49041BFFFF4C3E
S32508003A2022411A0468230E711B07815A14010760100B010E1898011C04E001181927F11A35
S32508003A4008C4231F304A0C046809100C30FE3F0C30041069041BC00C281E0D3030060E0457
S32508003A609C0C3010044B188604101208060D300C860D3006EE0F3002FC0D30015B0CF0401D
S32508003A80193C2A0F081A109ED1299019CB4908890417E0FFFF0360C009130409161C59188A
S32508003AA01A010429441A08045A100419F8130138041780FF1F2603C0FFFF071A8004293DD0
S32508003AC0326032181A0C135A030419A41C800108045E1CFCFFFF3F100928041AFC0432E0D8
S32508003AE00213401A40AC31192219AD711324F400FFFFFFFFFFFFFFFFFFFFFFFFFFFFFFFF9F
S32508003B00FFFFFFFFFFFFFFFFFFFFFFFFFFFFFFFFFFFFFFFFFFFFFFFFFFFFFFFFFFFFFFFFB7
S32508003B20FFFFFFFFFFFFFFFFFFFFFFFFFFFFFFFFFFFFFFFFFFFFFFFFFFFFFFFFFFFFFFFF97
S32508003B40FFFFFFFFFFFFFFFFFFFFFFFFFFFFFFFFFFFFFFFFFFFFFFFFFFFFFFFFFFFFFFFF77
S32508003B60FFFFFFFFFFFFFFFFFFFFFFFFFFFFFFFFFFFFFFFFFFFFFFFFFFFFFFFFFFFFFFFF57
S32508004000D80700209D010108BF17010819130108BD170108B1070108691C010800000000AC
S32508004020000000000000000000000000C3180108B30701080000000085180108C51801083F
S32508004040B7010108B7010108B7010108B7010108B7010108B7010108B7010108B70101084A
S32508004060B7010108B7010108B7010108B7010108B7010108B7010108B7010108B70101082A
S32508004080B7010108B7010108B7010108B7010108B7010108B7010108B7010108B70101080A
S325080040A0B7010108B7010108B7010108B7010108B7010108B7010108B7010108B7010108EA
S325080040C0B7010108B7010108B7010108B7010108B7010108B7010108B7010108B7010108CA
S325080040E0B7010108B7010108B7010108B7010108B7010108B7010108B7010108B7010108AA
S32508004100B7010108B7010108B7010108B7010108B7010108B7010108B7010108B701010889
S32508004120B7010108B7010108B7010108B7010108B7010108B7010108B7010108B701010869
S32508004140B7010108B7010108B7010108B7010108B7010108B7010108B7010108B701010849
S32508004160B7010108B7010108B7010108B7010108B7010108B7010108B701010800000000EA
S32508004180B7010108B7010108DFF80CD000F048FA004800478D250108D8070020064880474C
S325080041A006480047FEE7FEE7FEE7FEE7FEE7FEE7FEE7FEE7FEE7FEE7651901088901010850
S325080041C02DE9F05F0546002092469B4688460646814640241BE0284641464746224600F02E
S325080041E057F853465A46C01A914110D311461846224600F03EF82D1A67EB01084F462246B8
S325080042000120002100F035F817EB00094E41201EA4F10104DFDC484631462A464346BDE861
S32508004220F09FD2B201E000F8012B491EFBD270470022F6E710B513460A4604461946FFF761
S32508004240F0FF204610BD30B50B46014600202022012409E021FA02F59D4205D303FA02F584
S32508004260491B04FA02F52844151EA2F10102F1DC30BD202A04DB203A00FA02F100207047A1
S325080042809140C2F1200320FA03F3194390407047202A04DB203A21FA02F00021704721FAF3
S325080042A002F3D040C2F1200291400843194670472DE9FE4F804681EA0300C00F0C4600909C
S325080042C021F0004123F00045B8EB0200A94105D24046214690461C460B46024623F00040AF
S325080042E0104347D0270DC7F30A00C3F30A510290401A019040286BDAC3F3130040F4801B7B
S325080043000098924620B10023D2EB030A63EB0B0B01985946C0F140025046FFF7AAFF064651
S325080043200D4650465946019A00F08CF910EB08006141002487EA115284EAE7731A4340D005
S32508004340009A62B3019A012A4FEA075215DC001B61EB02014FF0004202EA0752CDE900422F
S32508004360001C41F5801132462B4600F08CF903B0BDE8F08F40462146F9E7001B61EB0201E0
S32508004380001C41F5801300185B412018A2F5001747EB030140EAD570B6196D4111E06D0808
S325080043A04FEA360645EAC0754FEA0752001B61EB0201001C41F5801149084FEA3000001964
S325080043C0514132462B4603B0BDE8F04F00F04CB90098012240000023D0EB020263EBE0734A
S325080043E0009821464FEAE074B8EB000061EB0401E9E783F000435BE781F0004158E72DE960
S32508004400FE4F81EA030404F0004421F0004100944FF0000B23F0004350EA01045ED052EA68
S3250800442003045BD0C3F30A54C1F30A552C44A4F2F3340194A0FB0254C1F3130141F48011D4
S32508004440C3F3130343F4801301FB024400FB034E840A970A44EA815447EA8357A4FB0768DF
S3250800446002958D0A05FB07854FEA932C04FB0C542705029D4FEA065847EA1637B5EB080590
S325080044806EEB070C870E920E47EA811742EA8312A7FB0201B6EB0B0164EB00042B0D43EAD9
S325080044A00C335E1844EB1C50DA465146E7FB0201C5F313044FEA0B3343EA14534FEA0432B9
S325080044C0019C43EA0603A4F10C040294009CCDE900B400F0D8F803B0BDE8F08F00200146BC
S325080044E0F9E72DE9F04D81EA030404F0004B21F0004514464FF0000A23F0004150EA05023C
S3250800450020D054EA01021DD0C5F30A570246C5F31303C1F31300C1F30A5640F4801543F465
S325080045208013A7EB0608101BD64608F2FD3873EB050002D308F1010801E092185B41B8F1BA
S32508004540000F03DA00200146BDE8F08D00204FF48011064684460EE0171B73EB050705D36C
S32508004560121B63EB050306434CEA010C49084FEA300092185B4150EA0107EDD152EA0300DF
S3250800458012D082EA040083EA0501084305D0101BAB4106D20122002306E000224FF0004369
S325080045A002E06FF0010253101AEB06004CEB085110EB0A0041EB0B01BDE8F04D00F054B890
S325080045C0C1F30A52C1F3130140F2FF3341F480119A4202DA00200146704740F233439A4271
S325080045E0A2F2334202DC5242FFF752BEFFF741BE30B5041E71F1000404DB4FF000444042E6
S3250800460064EB0101141E73F1000405DB1C464FF00043524263EB0403994208BF904230BD93
S32508004620064C074D06E0E06840F0010394E8070098471034AC42F6D3FFF7AAFD002C010835
S32508004640002C0108202A06DBCB17203A41FA02F043EAE07306E041FA02F3D040C2F1200208
S32508004660914008431946704710B5141E73F1000408DA401C41F1000192185B411A4301D1B5
S3250800468020F0010010BD2DE9F04D92469B4611B1B1FA81F202E0B0FA80F220329046FFF726
S325080046A0E8FD04460F4640EA0A0041EA0B0153465A46084313D0114653EA010019D0C8F15F
S325080046C040025046FFF7E4FD05460E46504659464246FFF7CEFD084305D0012004E0204675
S325080046E03946BDE8F08D0020054346EAE0762C4337430A986305E40AA0EB08000022FD0A80
S3250800470044EA47540A3002D500200146E9E7010510196941DDE9084500196941BDE8F04DE9
S32508004720A2E770B58C1810F8015B15F0070301D110F8013B2A1106D110F8012B03E010F85F
S32508004740016B01F8016B5B1EF9D12B0705D40023521E0DD401F8013BFAE710F8013BCB1A79
S32508004760921C03E013F8015B01F8015B521EF9D5A142D8D3002070BD0C4808B5016841F01A
S3250800478080510160006800F08050009000F0B2F906481038016841F480210160006800F4F4
S325080047A080200090BDE8084000F086B940380240FEE7704770B5044600F0ECF80546601C3F
S325080047C002D004480078044400F0E4F8401BA042FAD370BD680300202DE9F84FDFF87CB1FE
S325080047E000224FF001084FF0030A4FF00F090BF1040E00BF0B6808FA02F42340A3426ED1DF
S325080048004D68022D01D0122D0ED1D50800EB850CDCF820505607F70E09FA07F6B5430E6949
S32508004820BE402E43CCF82060066855000F790AFA05FC07F0030726EA0C06AF403743076074
S325080048404E68012E05D0022E03D0112E01D0122E0ED18668CF6826EA0C06AF4037438760C7
S325080048604668A6430C79C4F30014944034434460C6688C6826EA0C06AC403443C4604C68D5
S32508004880E40065D5364C256845F480452560246822F0030504F480440094324C2E19D6F8D1
S325080048A0084895072F0F09FA07F5AC432E4DA84201D1002524E02D4DA84201D101251FE017
S325080048C02B4DA84201D102251AE02A4DA84201D1032515E0284DA84202D1042510E037E0C3
S325080048E0264DA84201D105250AE0254DA84201D1062505E0234DA84201D1072500E00825C4
S32508004900BD402543C6F80858DBF800405D464E689C43F60300D51C432C60DEF80040754631
S325080049204E689C43B60300D51C432C600B4D08352C684E689C43F60200D51C432C60074D91
S325080049400C352C684E689C43B60200D51C432C60521C102AFFF44EAFBDE8F88F003C014026
S325080049604438024000300140000002400004024000080240000C0240001002400014024032
S3250800498000180240001C02400AB1816170470904FBE700000148806870470000680300209B
S325080049A0024881680278114481607047680300200B4810B5016841F400710160016841F49E
S325080049C080610160016841F480710160032000F061F8002000F006F800F024F8002010BD24
S325080049E0003C024070B50D4D04464FF47A712878B1FBF0F00A490968B1FBF0F000F011FCBB
S32508004A0048B9102C07D200222146501E00F022F800206C6070BD012070BD0000680300207F
S32508004A20740300200A4808B5016841F480410160006800F4804000900548001F016841F050
S32508004A4080510160006800F08050009008BD000044380240F0B40E4B1B680C46C3F302232E
S32508004A60C3F10705042D00D90425191D072901D2002300E0DB1E012606FA05F1491E21401B
S32508004A8099409E40761E16403143F0BC01F000B90CED00E0064900F0070208684FF6FF03C5
S32508004AA0184040EA0220034A10430860704700000CED00E00000FA0570B50C490120C1F859
S32508004AC0A400FFF767FF04464FF47A76084D06E0FFF760FF001BB04201D9032070BD6868B4
S32508004AE0C0430007F4D4002070BD000000000E4200700040014901200862704700000E42AD
S32508004B002DE9F843054600684FF00109C1074FF0000601D1400727D5DFF80C81C8F868602C
S32508004B20FFF738FF0746414C05E000BFFFF732FFC01B022857D820680001F7D468688101BB
S32508004B40287A41EA0070394984310860C8F86890FFF720FF074604E0FFF71CFFC01B022857
S32508004B6041D820680001F7D52878800752D52F484030016841F08051016000682C4C00F0E8
S32508004B8080500090206840F480702060FFF702FF074604E0FFF7FEFEC01B022823D82068D9
S32508004BA0C005F7D5214C7034206810F4407020D0A98901F4407181421BD020681D4920F491
S32508004BC04070C1F800900E6020602068C00710D0FFF7E0FE064641F2883707E0FFF7DAFEEA
S32508004BE0801BB84202D90320BDE8F88320688007F4D5E9680D48C1F301220830032A0BD05F
S32508004C00016821F4F81101602068A989C1F30B01084320600020E7E70268074B22F4F8128F
S32508004C2019400A430260EFE7000047420038024000700040400E4742FFFCFF0F2DE9F047A8
S32508004C400E46050065D0DFF81481D8F80000F7B200F00F00B04207D288F80070D8F8000049
S32508004C6000F00F00B04254D128683D4C810712D5400703D5206840F4E05020602878000756
S32508004C8003D5206840F4604020602068A96820F0F000084320602878C0072DD03049686841
S32508004CA00839012812D0022813D0032811D00968890700292DDA216821F0030101432160ED
S32508004CC0FFF768FE814641F2883A0EE009688903EFE709688901ECE7FFF75CFEA0EB09013A
S32508004CE0514502D90320BDE8F0872068696800F00C00B0EB810FEFD1D8F80010404601F05F
S32508004D000F01B14207D90770006800F00F00B04201D00120E7E72878400705D52068E96878
S32508004D2020F4E050084320602878000706D52068296920F4604040EAC100206000F036F87D
S32508004D402168084AC1F30311515CC840064908600020FFF747FE0020C5E70000003C024091
S32508004D6008380240002C0108740300200448054900680968044AC1F38221515CC840704753
S32508004D807403002008380240102C01080448054900680968044AC1F34231515CC840704753
S32508004DA07403002008380240102C0108154810B5006810F00C02144813D04110042A0FD052
S32508004DC0082A0ED10F4C241F2268236802F03F025B0207D52068C0F38810A0FB010106E03F
S32508004DE0084610BD2168C1F38811A1FB00010023FFF7E6F92168C1F30141491C4900B0FB47
S32508004E00F1F010BD083802400024F4002DE9F84F050076D02878DFF8F8B2BE4CC00749D089
S32508004E20DBF800105846C1F38101012908D00068C0F3810002280AD1201D0068400206D548
S32508004E402068800336D568680028E2D032E06868B0F5803F10D0B0F5A02F206810D020F46E
S32508004E6080302060206820F4802020606868A0B1FFF790FD06460CE0206840F48030F4E715
S32508004E8040F480202060F7E7FFF784FD801B642873D820688003F7D50CE0FFF77BFD06466C
S32508004EA005E000BFFFF776FD801B6428F0D820688003F7D42878DFF8608280074FF00009EA
S32508004EC03ED5DBF80010584611F00C0F09D00068C0F3810002280BD18D48001F00684002FB
S32508004EE006D42068800715D5E868012809D111E0E868B8B10120C8F80000FFF74BFD064669
S32508004F0005E002E1FFF746FD801B0228C0D820688007F7D52068296920F0F80040EAC1003D
S32508004F2020600DE0C8F80090FFF734FD064604E0FFF730FD801B02281FD820688007F7D496
S32508004F402878000722D5724E744869696C3671B101210160FFF71EFD074604E0FFF71AFDC1
S32508004F60C01B022809D830688007F7D50EE0C0F80090FFF70FFD074605E083E0FFF70AFD88
S32508004F80C01B02287ED830688007F7D42878400768D5DFF87CA100270AF1380ADAF8000070
S32508004FA0C0000BD4DAF8001041F08051CAF80010DAF80000012700F080500090584E306806
S32508004FC0C00510D4306840F480703060FFF7E2FC009005E0FFF7DEFC0099401A022851D86F
S32508004FE03068C005F6D54A4EA868683601280FD00528306810D020F001003060306820F03F
S3250800500004003060A868B8B1FFF7C4FC00900FE0306840F00100F4E740F004003060F7E7FA
S32508005020FFF7B8FC0099411A41F28830814264D830688007F4D50EE0FFF7ACFC009007E0EF
S32508005040FFF7A8FC0099411A41F28830814254D830688007F4D42FB1DAF8001021F080514F
S32508005060CAF80010A869C0B3DBF80010C1F3810102294AD00228484607D0C8F86000FFF7C9
S3250800508089FC00E039E005463AE04746C8F86000FFF780FC064604E0FFF77CFC801B02289D
S325080050A02BD820688001F7D4D5E907010843A96A1C4A490802EB01416A6A41EA8211084324
S325080050C095F82C1040EA01611148001F016001203866FFF75FFC054605E014E0FFF75AFC14
S325080050E0401B022809D820688001F7D50BE000BFFFF750FC401B022802D90320BDE8F88FCC
S3250800510020688001F4D40020F8E70120F6E70000083802400038024000004742800E474217
S32508005120007000400000FFFF70B5040002D0607F10B106E0012070BD00202077204600F0D7
S3250800514049F8022060772168CA204862216853204862204600F098FBFF25042618BB2068B2
S3250800516081681B4A114081602168886862681043D4E904231A43104388602168E068086155
S3250800518020680169228941EA024101612068C16821F08001C16020688068800607D42046F9
S325080051A000F024F818B1206845626677C2E72068016C21F4802101642068016CA2691143F3
S325080051C001642068456201206077002070BD0000BFFF8FFF00680349884202D102490120DF
S325080051E008607047002800403C0E474270B504460068C16821F0A001C160FFF7CBFB05466D
S325080052004FF47A7607E000BFFFF7C4FB401BB04201D9032070BD2068C0688006F4D500205C
S3250800522070BD10B5401EB0F1807F01D3012010BD4FF0E02460610F21601700F029FD0020CD
S32508005240A06107202061002010BD70B5040004D094F83900002510B106E0012070BD84F852
S325080052603850204600F022F8242084F839002068C16821F40051C160204600F09FFB20687F
S32508005280016921F4904101612068416921F02A0141612068C16841F40051C160E56320205E
S325080052A084F8390084F83A00002070BD10B586B0044614216846FEF7BBFF144920688842A2
S325080052C021D11348016841F010010160006800F0100005900E481438016841F001010160CB
S325080052E00068694600F0010005904FF4C06000900220019001200290032003900720049039
S325080053000448FFF769FA06B010BD0000001001404438024000000240FEE72DE9F041044690
S325080053201D4616460F462A2000F014F9204600F0F1F8304600F0EEF82B2000F00BF93846BC
S3250800534000F0E8F8284600F0E5F8BDE8F0412C2000F000B970B50646EF2300211A46084617
S32508005360FFF7DBFF00240025304600F0D3F86D1CF02DF9D3641CF02CF5D370BDF8B50E46D1
S3250800538000F1100301461F46EF220020FFF7C5FF00250024304600F0BDF8641C102CF9D378
S325080053A06D1CF02DF5D34FF6FF703B460090EF221946002000F002F8F8BD00002DE9FE4F1A
S325080053C0151ACDE900104FF000085E1A47464FF0FF30002D02DD4FF0010102E003D14FF0CE
S325080053E000018B4602E08346C5F10005002E02DD4FF0010002E003D14FF00000824602E07B
S325080054008246C5F10006B54201DD2C4600E03446601C4FF00009029016E000BFDDE9001078
S325080054200C9A00F016F8A8443744A04504DD0198A8EB040858440190A74203DD00983F1B6D
S325080054405044009009F1010902998945E6D3BDE8FE8F10B514460B460246FFF75EFF204651
S32508005460BDE8104000F056B82DE9F05F1C4688468146E0282CD80846B8F1E00F28D8203A83
S32508005480D6B200F10F0309F1070241464846FFF744FF1E48002C4FF000041BD04FEA000B1E
S325080054A004EB061100251BF8017008EB040AF80705D0514609EB05000A9AFFF7CAFF6D1CDE
S325080054C07F08EDB2082DF2D3641CE4B2102CE7D3BDE8F09FDFF838804FEA000904EB061187
S325080054E0002519F80170F80701D00A9801E0D8F8000000F00FF86D1C7F08EDB2082DF2D334
S32508005500641CE4B2102CE9D3E2E70000102601080000002010B50446012210210548FFF7A1
S3250800552033FAC4F3072000F023F8E0B2BDE8104000F01EB80000024010B504460122102155
S325080055400348FFF721FA2046BDE8104000F010B80000024010B50446002210210348FFF7E9
S3250800556013FA2046BDE8104000F002B80000024070B5144E0546002201213046FFF704FA49
S325080055800024002280213046FFF7FEF9280601D5012200E0002240213046FFF7F5F90122AC
S325080055A080213046FFF7F0F96806641C050EE4B2082CE6D33046BDE8704001221146FFF728
S325080055C0E3B900000000024010B5634C002220212046FFF7D9F9C820FFF7ECF801222021B4
S325080055E02046FFF7D1F91420FFF7E4F83620FFF7B1FF0020FFF7A0FF3A20FFF7ABFF0520A1
S32508005600FFF79AFFB220FFF7A5FF0C20FFF794FF0C20FFF791FF0020FFF78EFF3320FFF72E
S325080056208BFF3320FFF788FFB720FFF793FF3520FFF782FFBB20FFF78DFF1920FFF77CFFD0
S32508005640C020FFF787FF2C20FFF776FFC220FFF781FF0120FFF770FFC320FFF77BFF1220C6
S32508005660FFF76AFFC420FFF775FF2020FFF764FFC620FFF76FFF0F20FFF75EFFD020FFF724
S3250800568069FFA420FFF758FFA120FFF755FFE020FFF760FFD020FFF74FFF0420FFF74CFF8A
S325080056A00D20FFF749FF1120FFF746FF1320FFF743FF2B20FFF740FF3F20FFF73DFF542015
S325080056C0FFF73AFF4C20FFF737FF1820FFF734FF0D20FFF731FF0B20FFF72EFF1F20FFF7BE
S325080056E02BFF2320FFF728FFE120FFF733FFD020FFF722FF0420FFF71FFF0C20FFF71CFF6D
S325080057001120FFF719FF1320FFF716FF2C20FFF713FF3F20FFF710FF4420FFF70DFF51206F
S32508005720FFF70AFF2F20FFF707FF1F20FFF704FF1F20FFF701FF2020FFF7FEFE2320FFF739
S32508005740FBFE2120FFF706FF1120FFF703FFBDE810402920FFF7FEBE0000024030B587B08F
S3250800576014216846FEF764FD12480024016841F080010160016801F080010591016841F0DD
S325080057800101016000680C4D00F0010005902246F1212846FFF7F8F8F12000900120CDE90B
S325080057A001040220039069462846FFF715F807B030BD00003038024000000240FEE77047D5
S325080057C00FB4FC212DE9F047C0B0824601A8FEF72FFD00244AAA01A8499900F047FA8146F1
S325080057E0002648F23048264D01AF3AE00A2A23D0287800F10801E8293CD9687841461030F8
S32508005800C0B268702E70FFF7B9FD6878E02805D96E7030462E704146FFF7B0FDCDF800A09F
S325080058203A5D002369782878FFF71EFE641C2878E4B20830287012E02E7068784146103050
S32508005840C0B26870FFF79AFD6878E02805D96E7030462E704146FFF791FD641CE4B2302C2E
S3250800586002D83A5D002AC1D140B04846BDE8F0075DF814FBCDF800A000236978D4E700004B
S32508005880640300207047000070B504460068C168490614D44FF0FF31C160FFF77BF8054641
S325080058A04FF47A7607E000BFFFF774F8401BB04201D9032070BD2068C0684006F4D5002049
S325080058C070BD7047FFF76CB830B597B030216846FEF7AEFC14210CA8FEF7AAFC00251F48E2
S325080058E01195129513951495016841F080510160006800F0805015901948016841F48041A3
S3250800590001600068022400F480401590092000904FF4803001900120CDE9050480050790F8
S3250800592008AA0420A82182E813000B906846FFF76DFA0CA90F2081E831004FF4A0500F9047
S32508005940E002109005210CA8FFF778F920021490119411A8FFF7D4F817B030BD4038024022
S32508005960007000401048016841F4700101600F48016841F0010101600C4A0021083211602B
S3250800598002680B4B1A400260031D0A4A1A60026822F48022026005480C3001600249064888
S325080059A0803908607047000088ED00E000380240FFFFF6FE10300024000001082DE9F0418C
S325080059C0044600680169E26821F44051114301612169A068E26908436169114322680843DC
S325080059E0D16849F20C6399430143D16020684169A26921F4407111434161E2696425B2F5F1
S32508005A00004F9748974922684FF032083FD08A4201D082427CD1FFF7B9F900EBC00101EB6A
S32508005A20001061688900B0FBF1F6FFF7AFF900EBC00101EB001061688900B0FBF1F0B0FB95
S32508005A40F5F06FF01801484306EB800108EB0110B0FBF5F000F0F006FFF798F900EBC00131
S32508005A6001EB001061688900B0FBF1F0B0FBF5F006EB0016FFF78AF900EBC00101EB001086
S32508005A8061688900B0FBF1F7FFF780F9D2E08A4201D082423DD1FFF779F900EBC00101EB83
S32508005AA0001061684900B0FBF1F0B0FBF5F00601FFF76CF900EBC00101EB0010616849007E
S32508005AC0B0FBF1F7FFF762F900EBC00101EB001061684900B0FBF1F0B0FBF5F06FF0180186
S32508005AE0484307EB800108EBC100B0FBF5F000F0F80006EB4006FFF749F900EBC00101EB67
S32508005B00001061684900B0FBF1F7FFF73FF93CE055E0FFF72BF900EBC00101EB00106168B8
S32508005B204900B0FBF1F0B0FBF5F00601FFF71EF900EBC00101EB001061684900B0FBF1F791
S32508005B40FFF714F900EBC00101EB001061684900B0FBF1F0B0FBF5F06FF01801484307EB69
S32508005B60800108EBC100B0FBF5F000F0F80006EB4006FFF7FBF800EBC00101EB00106168D9
S32508005B804900B0FBF1F7FFF7F1F800EBC00101EB001061684900B0FBF1F0B0FBF5F06FF007
S32508005BA01801484307EB800108EBC100B0FBF5F000F00700216830448860BDE8F081FFF794
S32508005BC0D5F800EBC00101EB001061688900B0FBF1F6FFF7CBF800EBC00101EB0010616834
S32508005BE08900B0FBF1F0B0FBF5F06FF01801484306EB800108EB0110B0FBF5F000F0F00603
S32508005C00FFF7B4F800EBC00101EB001061688900B0FBF1F0B0FBF5F006EB0016FFF7A6F823
S32508005C2000EBC00101EB001061688900B0FBF1F7FFF79CF800EBC00101EB00106168890045
S32508005C40B0FBF1F0B0FBF5F06FF01801484307EB800108EB0110B0FBF5F000F00F00A9E781
S32508005C600014014000100140FEE7000037B514460846064B6A46214600F0ECF804466946C2
S32508005C80002000F07EFC20463EBD0000832501080907090E002804DB00F1E02080F80014AF
S32508005CA0704700F00F0000F1E02080F8141D704702E008C8121F08C1002AFAD170477047C0
S32508005CC0002001E001C1121F002AFBD1704700002DE9FF5F82B00021DDE90430020DDDF870
S32508005CE040B0034318D044F61050A2F2FF3242431514119801281FD0A5EB0B00401C5FEA6A
S32508005D00000A4FF000064E4FDFF83891B046504615D5CAF1000413E0119801244AA30128DD
S32508005D2001D16FEA0B010298119AC0E90031C0E9024206B0BDE8F09FCBF10000DFE704465C
S32508005D400021404A491842EB0450CDE9001012E0E00707D032463B4640464946FEF74FFBE5
S32508005D608046894632463B4610461946FEF747FB06460F466410002CEAD1DDE90401DDE90E
S32508005D800023BAF1000F06DAFEF739FB42464B46FEF735FB05E0FEF7A4FB42464B46FEF74A
S32508005DA0A0FB04460E460022284BFEF721FC03D84FF0FF30014607E00022254B204631460F
S32508005DC0FEF776FAFEF7FCFB102409E0002C0ADB0A220023FEF7F4F9039B30321A55641E14
S32508005DE050EA0102F2D1641C039AC4F111031444119A012A03D0012208430DD10AE008432D
S32508005E0004D000204FF0110B119072E7A3EB0B056D1E0DE05B4504DD4FF0000205F1010557
S32508005E2004E003DA4FF00002A5F10105002AECD002981199C0E90231C0E9004579E7000062
S32508005E40000014400000F03F300000000000F0430000E03F2DE9FF4F95B09B46894606468A
S32508005E6000250FE2252877D100242746F84A0121059400E0044316F8013F203B01FA03F01D
S32508005E801042F7D130782A2811D06FF02F033078A0F13002092A16D8059A44F0020402EB1C
S32508005EA0820203EB42021044761C0590EFE759F8042B0592002A03DA504244F400540590FC
S32508005EC044F00204761C30782E2816D116F8010F44F004042A280DD06FF02F023078A0F1B1
S32508005EE03003092B09D807EB870302EB4303C718761CF3E759F8047B761C30786C280FD0D5
S32508005F0006DC4C2817D068280DD06A2814D104E0742810D07A280FD10DE044F400140AE04D
S32508005F2044F4801401E044F440147278824202D104F58014761C761C307866280BD013DCE8
S32508005F40582877D009DC002875D04528F6D04628F4D047281AD19DE118E0632835D06428C9
S32508005F6079D0652812D195E1702873D008DC6728F1D069286FD06E280DD06F2806D1B5E08F
S32508005F8073282CD0752875D0782874D05A46179990476D1C75E1C4F30250022809D0032859
S32508005FA00DD0D9F8001004280DD00D6009F1040967E1D9F80010EA17C1E90052F6E7D9F8C4
S32508005FC000100D80F2E70D70F0E719F8041B8DF8001000208DF80100EA46012003E059F8F9
S32508005FE004AB4FF0FF3061074FF0000102D40DE008F101018846B9420FDA8045F8DB1AF8B4
S3250800600008100029F4D108E008F1010188468142FADB1AF808100029F6D105985B46A0EB40
S32508006020080721463846179A00F094FA284400EB080507E04DE029E10DE01AF8010B5A4602
S3250800604017999047B8F10108F7D25B4621463846179A13E142E00A220092C4F302524FF0DB
S32508006060000A022A08D059F804CB032A4FEAEC710AD00DE029E02AE009F1070121F007022B
S32508006080F2E802C1914609E00FFA8CFC4FEAEC71042A03D14FFA8CFC4FEAEC71002907DAFB
S325080060A00A460021DCF1000C61EB02012D2202E0220504D52B228DF80420012203E0E20723
S325080060C001D02022F7E7904659E00A2102E010220DE010214FF0000A00910BE010224FF01F
S325080060E0000A44F004040827009203E008224FF0000A0092C4F30252022A05D059F804CB77
S325080061000021032A08D009E009F1070121F00702F2E802C1914605E01FFA8CFC042A01D14C
S325080061200CF0FF0C4FF00008220728D5702806D0009B83F0100353EA0A0305D00EE04022DF
S325080061408DF80420012208E05CEA010206D030228DF804208DF8050002229046009B83F0D1
S32508006160080353EA0A030AD15CEA010201D1620705D530228DF804204FF001087F1E582823
S3250800618004D034A003900EA802900DE036A0F9E753466046009AFEF713F884460398825CAF
S325080061A00298401E029002705CEA0100F0D1029806A9081A00F1200A600702D524F480343D
S325080061C000E00127574502DDA7EB0A0000E0002000EB0A01009005984144401A0590E00318
S325080061E006D45B462146179A059800F0B3F90544002706E001A85A46C05D179990476D1CF9
S325080062007F1C4745F6DBE0030CD55B462146179A059800F09FF9054404E030205A46179909
S3250800622090476D1C0099481E00900029F5DC08E0029802995A460078491C029117999047B3
S325080062406D1CBAF10001AAF1010AF1DC65E100000928010030313233343536373839616240
S325080062606364656600000000303132333435363738394142434445460000000000F058F99B
S325080062800544761C307800287FF4ECAD19B02846BDE8F08F620700D4062709F1070222F05F
S325080062A0070CFCE80223E14603F000485FEA080C02D00FF2702C0DE05FEA045C02D50FF218
S325080062C0682C07E05FEAC47C02D00FF2602C01E0AFF2700C4FF0FF3823F00043CDF850C0AE
S325080062E065280CD006DC452809D046281DD047283DD13DE0662818D067287ED138E000217D
S32508006300112F01DB112000E0781CCDE9000106A90EA8FFF7DDFCDDE90F010E9A0391002190
S32508006320009207F1010A04914DE04FF000400097CDE9011006A90EA8FFF7CAFCDDE90F0223
S3250800634003920E9B11990022DDF80CA00093049211B9791C00EB010AB7EB0A0004D4C0F1F1
S32508006360FF3007F1010A0490AAEB0700019044E0012F00DA01270021112F01DD112000E076
S325080063803846CDE9000106A90EA8FFF7A1FCDDE90F010E9A0391002104910092BA46210740
S325080063A00CD40399514500DA8A46BAF1010F05DD009AAAF10101515C302908D0B84202DA8B
S325080063C010F1040F06DA0121CDE9011015E0AAF10101E9E7002805DC049901440491AAEB5B
S325080063E0000102E0411C514500DD8A460499401A401C01904FF000400290200704D401987F
S32508006400504501DBCDF8048000208DF84F0002980DF14F07B0F1004F25D02B200E9002986A
S325080064204FF0020800280CDA404202902D200E9007E00A210298FDF706FF3031029007F861
S32508006440011DB8F10001A8F10108F2DC02980028EFD1791E0E980870307800F0200040F0D7
S32508006460450007F8020D12A8C01B00F107081498007800B1012000EB0A01019801EBE07164
S3250800648005984144401A401E0590E00306D45B462146179A059800F05DF8054414980078BA
S325080064A018B15A46179990476D1CE00324D55B462146179A059800F04DF805441CE004980D
S325080064C0002807DBDDE90301884203DD0098405C179901E0179930205A469047049805F162
S325080064E00105401C04900198401E019004D12E205A46179990476D1CBAF10001AAF1010AEB
S32508006500DDDC05E017F8010B5A46179990476D1CB8F10001A8F10108F4DC5B462146179A2F
S325080065200598ABE62D0000002B000000200000002DE9F041044600251E461746880404D4CC
S3250800654005E039462020B0476D1C641EF9D52846BDE8F0812DE9F041044600251E46904645
S32508006560C80301D5302700E02027880404D505E041463846B0476D1C641EF9D52846BDE8BC
S32508006580F0810A68531C0B6010707047002000F210809AF10DF2E2F01048174100200040EB
S325080065A006400020006001140021C060000004018460C061044100600040104100380048F1
S325080065C000002020806000004021010044218061021400618461F8F700F03044204648F296
S325080065E0304400400460B6F6074804204EF6C47006A146F0FE600000001000400000000053
S32508006600000000000000000000000020004543302000000000000000000000000000000074
S3250800662000000000000000000000000808080000080800000008000000000000000000001C
S3250800664000000000000000000000000000007F1212120000000000000000080C0828080823
S3250800666008080808000000000000000020101414000000000000000000000008120000007A
S325080066801024000000060000000000000000000000000000000000000000000000080800A2
S325080066A000000000000000000000000000101000000000000000000000000000080808088C
S325080066C0000000000000000000000000080808080800000000000000000000000000000084
S325080066E000000000000000000000000000000000000000000000000000000000000000008C
S325080067000000000000000000000000000000000000000000000000000000000000424242A5
S325080067200000000000000000000000080808080808080000000000000000002000000000F3
S325080067400010000000000000000000180040000020000000000000000000002020202420FF
S3250800676020200000000000000000001A020000022200000000000000000000182402020249
S32508006780240000000000000000000010000000000808000000000000000000240000420041
S325080067A0002400000000000000000000244040402418000000000000000000000000000087
S325080067C00000000000000000000000000000000000000000000000000000000000000800A3
S325080067E000000000000000000000000000007F0000000000000000000000000000001000FC
S325080068000000000000000000000000000000000000100000000000000000001400500540B1
S325080068200014000000000000000000000018000000240000000000000000001E22020202B4
S3250800684022020000000000000000000000000100000000000000000000000002024242423B
S3250800686002020000000000000000001E0212020202120000000000000000001E0212020286
S3250800688002020000000000000000000000200100001000000000000000000042424242426B
S325080068A04242000000000000000000080808080808080000000000000000001010101010BE
S325080068C0101010000000000700000006021202020212000000000000000000020202020237
S325080068E0020200000000000000000036222222222A2A00000000000000000042424242422A
S32508006900424200000000000000000000004141410000000000000000000000020202020218
S325080069200202000000000000000000000041414100004000000000000000003E02020222DC
S325080069400202000000000000000000040000000000200000000000000000000808080808D9
S32508006960080800000000000000000042424242424200000000000000000000240000000049
S325080069800000000000000000000000494141000000000000000000000000000000002400FA
S325080069A0000000000000000000000014000000000808000000000000000000100000000095
